{"abi":[{"type":"function","name":"addRecord","inputs":[{"name":"_patient","type":"address","internalType":"address"},{"name":"_ipfsCID","type":"string","internalType":"string"},{"name":"_category","type":"uint8","internalType":"enum NetsanetCore.RecordCategory"},{"name":"_recordType","type":"string","internalType":"string"}],"outputs":[],"stateMutability":"nonpayable"},{"type":"function","name":"getAccessRequestDetails","inputs":[{"name":"_patient","type":"address","internalType":"address"},{"name":"_doctor","type":"address","internalType":"address"},{"name":"_category","type":"uint8","internalType":"enum NetsanetCore.RecordCategory"}],"outputs":[{"name":"request","type":"tuple","internalType":"struct NetsanetCore.AccessRequest","components":[{"name":"doctor","type":"address","internalType":"address"},{"name":"category","type":"uint8","internalType":"enum NetsanetCore.RecordCategory"},{"name":"requestedAt","type":"uint256","internalType":"uint256"},{"name":"requestedDurationHours","type":"uint256","internalType":"uint256"},{"name":"respondedAt","type":"uint256","internalType":"uint256"},{"name":"status","type":"uint8","internalType":"enum NetsanetCore.AccessRequestStatus"}]},{"name":"exists","type":"bool","internalType":"bool"}],"stateMutability":"view"},{"type":"function","name":"getGrantDetails","inputs":[{"name":"_patient","type":"address","internalType":"address"},{"name":"_doctor","type":"address","internalType":"address"},{"name":"_category","type":"uint8","internalType":"enum NetsanetCore.RecordCategory"}],"outputs":[{"name":"grant","type":"tuple","internalType":"struct NetsanetCore.AccessGrant","components":[{"name":"doctor","type":"address","internalType":"address"},{"name":"category","type":"uint8","internalType":"enum NetsanetCore.RecordCategory"},{"name":"grantedAt","type":"uint256","internalType":"uint256"},{"name":"expiresAt","type":"uint256","internalType":"uint256"},{"name":"revoked","type":"bool","internalType":"bool"}]},{"name":"exists","type":"bool","internalType":"bool"}],"stateMutability":"view"},{"type":"function","name":"getMyAccessGrants","inputs":[],"outputs":[{"name":"","type":"tuple[]","internalType":"struct NetsanetCore.AccessGrant[]","components":[{"name":"doctor","type":"address","internalType":"address"},{"name":"category","type":"uint8","internalType":"enum NetsanetCore.RecordCategory"},{"name":"grantedAt","type":"uint256","internalType":"uint256"},{"name":"expiresAt","type":"uint256","internalType":"uint256"},{"name":"revoked","type":"bool","internalType":"bool"}]}],"stateMutability":"view"},{"type":"function","name":"getMyAuditLog","inputs":[],"outputs":[{"name":"","type":"tuple[]","internalType":"struct NetsanetCore.AuditEntry[]","components":[{"name":"accessor","type":"address","internalType":"address"},{"name":"category","type":"uint8","internalType":"enum NetsanetCore.RecordCategory"},{"name":"timestamp","type":"uint256","internalType":"uint256"},{"name":"action","type":"string","internalType":"string"}]}],"stateMutability":"view"},{"type":"function","name":"getMyPendingAccessRequests","inputs":[],"outputs":[{"name":"pending","type":"tuple[]","internalType":"struct NetsanetCore.AccessRequest[]","components":[{"name":"doctor","type":"address","internalType":"address"},{"name":"category","type":"uint8","internalType":"enum NetsanetCore.RecordCategory"},{"name":"requestedAt","type":"uint256","internalType":"uint256"},{"name":"requestedDurationHours","type":"uint256","internalType":"uint256"},{"name":"respondedAt","type":"uint256","internalType":"uint256"},{"name":"status","type":"uint8","internalType":"enum NetsanetCore.AccessRequestStatus"}]}],"stateMutability":"view"},{"type":"function","name":"getMyRecords","inputs":[],"outputs":[{"name":"","type":"tuple[]","internalType":"struct NetsanetCore.MedicalRecord[]","components":[{"name":"ipfsCID","type":"string","internalType":"string"},{"name":"category","type":"uint8","internalType":"enum NetsanetCore.RecordCategory"},{"name":"recordType","type":"string","internalType":"string"},{"name":"addedByClinic","type":"address","internalType":"address"},{"name":"timestamp","type":"uint256","internalType":"uint256"}]}],"stateMutability":"view"},{"type":"function","name":"getRecordCount","inputs":[{"name":"_patient","type":"address","internalType":"address"}],"outputs":[{"name":"","type":"uint256","internalType":"uint256"}],"stateMutability":"view"},{"type":"function","name":"getRecordsByCategory","inputs":[{"name":"_patient","type":"address","internalType":"address"},{"name":"_category","type":"uint8","internalType":"enum NetsanetCore.RecordCategory"}],"outputs":[{"name":"filtered","type":"tuple[]","internalType":"struct NetsanetCore.MedicalRecord[]","components":[{"name":"ipfsCID","type":"string","internalType":"string"},{"name":"category","type":"uint8","internalType":"enum NetsanetCore.RecordCategory"},{"name":"recordType","type":"string","internalType":"string"},{"name":"addedByClinic","type":"address","internalType":"address"},{"name":"timestamp","type":"uint256","internalType":"uint256"}]}],"stateMutability":"nonpayable"},{"type":"function","name":"grantAccess","inputs":[{"name":"_doctor","type":"address","internalType":"address"},{"name":"_category","type":"uint8","internalType":"enum NetsanetCore.RecordCategory"},{"name":"_durationHours","type":"uint256","internalType":"uint256"}],"outputs":[],"stateMutability":"nonpayable"},{"type":"function","name":"hasActiveAccess","inputs":[{"name":"_patient","type":"address","internalType":"address"},{"name":"_doctor","type":"address","internalType":"address"},{"name":"_category","type":"uint8","internalType":"enum NetsanetCore.RecordCategory"}],"outputs":[{"name":"","type":"bool","internalType":"bool"}],"stateMutability":"view"},{"type":"function","name":"patients","inputs":[{"name":"","type":"address","internalType":"address"}],"outputs":[{"name":"name","type":"string","internalType":"string"},{"name":"createdAt","type":"uint256","internalType":"uint256"},{"name":"exists","type":"bool","internalType":"bool"}],"stateMutability":"view"},{"type":"function","name":"registerPatient","inputs":[{"name":"_name","type":"string","internalType":"string"}],"outputs":[],"stateMutability":"nonpayable"},{"type":"function","name":"requestAccess","inputs":[{"name":"_patient","type":"address","internalType":"address"},{"name":"_category","type":"uint8","internalType":"enum NetsanetCore.RecordCategory"},{"name":"_durationHours","type":"uint256","internalType":"uint256"}],"outputs":[],"stateMutability":"nonpayable"},{"type":"function","name":"respondToAccessRequest","inputs":[{"name":"_doctor","type":"address","internalType":"address"},{"name":"_category","type":"uint8","internalType":"enum NetsanetCore.RecordCategory"},{"name":"_approve","type":"bool","internalType":"bool"}],"outputs":[],"stateMutability":"nonpayable"},{"type":"function","name":"revokeAccess","inputs":[{"name":"_doctor","type":"address","internalType":"address"},{"name":"_category","type":"uint8","internalType":"enum NetsanetCore.RecordCategory"}],"outputs":[],"stateMutability":"nonpayable"},{"type":"event","name":"AccessGranted","inputs":[{"name":"patient","type":"address","indexed":true,"internalType":"address"},{"name":"doctor","type":"address","indexed":true,"internalType":"address"},{"name":"category","type":"uint8","indexed":false,"internalType":"enum NetsanetCore.RecordCategory"},{"name":"expiresAt","type":"uint256","indexed":false,"internalType":"uint256"},{"name":"timestamp","type":"uint256","indexed":false,"internalType":"uint256"}],"anonymous":false},{"type":"event","name":"AccessRequestResponded","inputs":[{"name":"patient","type":"address","indexed":true,"internalType":"address"},{"name":"doctor","type":"address","indexed":true,"internalType":"address"},{"name":"category","type":"uint8","indexed":false,"internalType":"enum NetsanetCore.RecordCategory"},{"name":"durationHours","type":"uint256","indexed":false,"internalType":"uint256"},{"name":"approved","type":"bool","indexed":false,"internalType":"bool"},{"name":"timestamp","type":"uint256","indexed":false,"internalType":"uint256"}],"anonymous":false},{"type":"event","name":"AccessRequested","inputs":[{"name":"patient","type":"address","indexed":true,"internalType":"address"},{"name":"doctor","type":"address","indexed":true,"internalType":"address"},{"name":"category","type":"uint8","indexed":false,"internalType":"enum NetsanetCore.RecordCategory"},{"name":"durationHours","type":"uint256","indexed":false,"internalType":"uint256"},{"name":"timestamp","type":"uint256","indexed":false,"internalType":"uint256"}],"anonymous":false},{"type":"event","name":"AccessRevoked","inputs":[{"name":"patient","type":"address","indexed":true,"internalType":"address"},{"name":"doctor","type":"address","indexed":true,"internalType":"address"},{"name":"category","type":"uint8","indexed":false,"internalType":"enum NetsanetCore.RecordCategory"},{"name":"timestamp","type":"uint256","indexed":false,"internalType":"uint256"}],"anonymous":false},{"type":"event","name":"AccessUsed","inputs":[{"name":"patient","type":"address","indexed":true,"internalType":"address"},{"name":"doctor","type":"address","indexed":true,"internalType":"address"},{"name":"category","type":"uint8","indexed":false,"internalType":"enum NetsanetCore.RecordCategory"},{"name":"recordCount","type":"uint256","indexed":false,"internalType":"uint256"},{"name":"timestamp","type":"uint256","indexed":false,"internalType":"uint256"}],"anonymous":false},{"type":"event","name":"PatientRegistered","inputs":[{"name":"patient","type":"address","indexed":true,"internalType":"address"},{"name":"name","type":"string","indexed":false,"internalType":"string"},{"name":"timestamp","type":"uint256","indexed":false,"internalType":"uint256"}],"anonymous":false},{"type":"event","name":"RecordAdded","inputs":[{"name":"patient","type":"address","indexed":true,"internalType":"address"},{"name":"clinic","type":"address","indexed":true,"internalType":"address"},{"name":"category","type":"uint8","indexed":false,"internalType":"enum NetsanetCore.RecordCategory"},{"name":"recordType","type":"string","indexed":false,"internalType":"string"},{"name":"recordIndex","type":"uint256","indexed":false,"internalType":"uint256"},{"name":"timestamp","type":"uint256","indexed":false,"internalType":"uint256"}],"anonymous":false}],"bytecode":{"object":"0x608060405234801561000f575f80fd5b5061585c806200001e5f395ff3fe608060405234801561000f575f80fd5b50600436106100fd575f3560e01c80636f925535116100955780639b711bef116100645780639b711bef14610296578063ab62062f146102c6578063e76637ce146102f7578063e9c6db1614610315576100fd565b80636f9255351461022457806371bfceed146102405780637f81622a1461025e578063869c9eaf1461027a576100fd565b806358214308116100d157806358214308146101a057806361cd0e80146101d05780636c52df4e146101ec5780636cf0d1ba14610208576100fd565b806253262a146101015780630869cfbc1461011f5780630c4cfe8a14610151578063250607e11461016f575b5f80fd5b610109610345565b6040516101169190614089565b60405180910390f35b610139600480360381019061013491906140db565b610523565b604051610148939291906141ae565b60405180910390f35b6101596105da565b604051610166919061434d565b60405180910390f35b61018960048036038101906101849190614390565b610824565b60405161019792919061449f565b60405180910390f35b6101ba60048036038101906101b591906140db565b610a5a565b6040516101c791906144c6565b60405180910390f35b6101ea60048036038101906101e59190614509565b610b30565b005b61020660048036038101906102019190614583565b611066565b005b610222600480360381019061021d9190614583565b61110e565b005b61023e600480360381019061023991906145d3565b61183d565b005b610248611cb9565b6040516102559190614732565b60405180910390f35b610278600480360381019061027391906147b3565b612028565b005b610294600480360381019061028f9190614856565b612562565b005b6102b060048036038101906102ab9190614390565b612766565b6040516102bd91906148a1565b60405180910390f35b6102e060048036038101906102db9190614390565b6128bd565b6040516102ee929190614920565b60405180910390f35b6102ff612ac9565b60405161030c9190614a7c565b60405180910390f35b61032f600480360381019061032a91906145d3565b612da3565b60405161033c9190614a7c565b60405180910390f35b60605f803373ffffffffffffffffffffffffffffffffffffffff1673ffffffffffffffffffffffffffffffffffffffff1681526020019081526020015f206002015f9054906101000a900460ff166103d2576040517f08c379a00000000000000000000000000000000000000000000000000000000081526004016103c990614ae6565b60405180910390fd5b60025f3373ffffffffffffffffffffffffffffffffffffffff1673ffffffffffffffffffffffffffffffffffffffff1681526020019081526020015f20805480602002602001604051908101604052809291908181526020015f905b8282101561051a578382905f5260205f2090600402016040518060a00160405290815f82015f9054906101000a900473ffffffffffffffffffffffffffffffffffffffff1673ffffffffffffffffffffffffffffffffffffffff1673ffffffffffffffffffffffffffffffffffffffff1681526020015f820160149054906101000a900460ff1660068111156104c7576104c6613eff565b5b60068111156104d9576104d8613eff565b5b81526020016001820154815260200160028201548152602001600382015f9054906101000a900460ff1615151515815250508152602001906001019061042e565b50505050905090565b5f602052805f5260405f205f91509050805f01805461054190614b31565b80601f016020809104026020016040519081016040528092919081815260200182805461056d90614b31565b80156105b85780601f1061058f576101008083540402835291602001916105b8565b820191905f5260205f20905b81548152906001019060200180831161059b57829003601f168201915b505050505090806001015490806002015f9054906101000a900460ff16905083565b60605f803373ffffffffffffffffffffffffffffffffffffffff1673ffffffffffffffffffffffffffffffffffffffff1681526020019081526020015f206002015f9054906101000a900460ff16610667576040517f08c379a000000000000000000000000000000000000000000000000000000000815260040161065e90614ae6565b60405180910390fd5b60045f3373ffffffffffffffffffffffffffffffffffffffff1673ffffffffffffffffffffffffffffffffffffffff1681526020019081526020015f20805480602002602001604051908101604052809291908181526020015f905b8282101561081b578382905f5260205f2090600302016040518060800160405290815f82015f9054906101000a900473ffffffffffffffffffffffffffffffffffffffff1673ffffffffffffffffffffffffffffffffffffffff1673ffffffffffffffffffffffffffffffffffffffff1681526020015f820160149054906101000a900460ff16600681111561075c5761075b613eff565b5b600681111561076e5761076d613eff565b5b81526020016001820154815260200160028201805461078c90614b31565b80601f01602080910402602001604051908101604052809291908181526020018280546107b890614b31565b80156108035780601f106107da57610100808354040283529160200191610803565b820191905f5260205f20905b8154815290600101906020018083116107e657829003601f168201915b505050505081525050815260200190600101906106c3565b50505050905090565b61082c613d85565b5f8060065f8773ffffffffffffffffffffffffffffffffffffffff1673ffffffffffffffffffffffffffffffffffffffff1681526020019081526020015f205f8673ffffffffffffffffffffffffffffffffffffffff1673ffffffffffffffffffffffffffffffffffffffff1681526020019081526020015f205f8560068111156108ba576108b9613eff565b5b60068111156108cc576108cb613eff565b5b81526020019081526020015f205490505f81036108ef57825f9250925050610a52565b60035f8773ffffffffffffffffffffffffffffffffffffffff1673ffffffffffffffffffffffffffffffffffffffff1681526020019081526020015f206001826109399190614b8e565b8154811061094a57610949614bc1565b5b905f5260205f2090600502016001816040518060c00160405290815f82015f9054906101000a900473ffffffffffffffffffffffffffffffffffffffff1673ffffffffffffffffffffffffffffffffffffffff1673ffffffffffffffffffffffffffffffffffffffff1681526020015f820160149054906101000a900460ff1660068111156109dc576109db613eff565b5b60068111156109ee576109ed613eff565b5b8152602001600182015481526020016002820154815260200160038201548152602001600482015f9054906101000a900460ff166003811115610a3457610a33613eff565b5b6003811115610a4657610a45613eff565b5b81525050915092509250505b935093915050565b5f815f808273ffffffffffffffffffffffffffffffffffffffff1673ffffffffffffffffffffffffffffffffffffffff1681526020019081526020015f206002015f9054906101000a900460ff16610ae7576040517f08c379a0000000000000000000000000000000000000000000000000000000008152600401610ade90614c38565b60405180910390fd5b60015f8473ffffffffffffffffffffffffffffffffffffffff1673ffffffffffffffffffffffffffffffffffffffff1681526020019081526020015f2080549050915050919050565b5f803373ffffffffffffffffffffffffffffffffffffffff1673ffffffffffffffffffffffffffffffffffffffff1681526020019081526020015f206002015f9054906101000a900460ff16610bbb576040517f08c379a0000000000000000000000000000000000000000000000000000000008152600401610bb290614ae6565b60405180910390fd5b5f60065f3373ffffffffffffffffffffffffffffffffffffffff1673ffffffffffffffffffffffffffffffffffffffff1681526020019081526020015f205f8573ffffffffffffffffffffffffffffffffffffffff1673ffffffffffffffffffffffffffffffffffffffff1681526020019081526020015f205f846006811115610c4857610c47613eff565b5b6006811115610c5a57610c59613eff565b5b81526020019081526020015f205490505f8103610cac576040517f08c379a0000000000000000000000000000000000000000000000000000000008152600401610ca390614cc6565b60405180910390fd5b5f60035f3373ffffffffffffffffffffffffffffffffffffffff1673ffffffffffffffffffffffffffffffffffffffff1681526020019081526020015f20600183610cf79190614b8e565b81548110610d0857610d07614bc1565b5b905f5260205f209060050201905060016003811115610d2a57610d29613eff565b5b816004015f9054906101000a900460ff166003811115610d4d57610d4c613eff565b5b14610d8d576040517f08c379a0000000000000000000000000000000000000000000000000000000008152600401610d8490614d2e565b60405180910390fd5b4281600301819055508215610e4d576002816004015f6101000a81548160ff02191690836003811115610dc357610dc2613eff565b5b02179055508473ffffffffffffffffffffffffffffffffffffffff163373ffffffffffffffffffffffffffffffffffffffff167f39a67d0adcd5ba37fe4471de5d1087e6e62a45b561458e60142135f3f562a118868460020154600142604051610e309493929190614d5b565b60405180910390a3610e48338686846002015461344f565b61105f565b6003816004015f6101000a81548160ff02191690836003811115610e7457610e73613eff565b5b021790555060045f3373ffffffffffffffffffffffffffffffffffffffff1673ffffffffffffffffffffffffffffffffffffffff1681526020019081526020015f2060405180608001604052808773ffffffffffffffffffffffffffffffffffffffff168152602001866006811115610ef057610eef613eff565b5b81526020014281526020016040518060400160405280601781526020017f4143434553535f524551554553545f4445434c494e4544000000000000000000815250815250908060018154018082558091505060019003905f5260205f2090600302015f909190919091505f820151815f015f6101000a81548173ffffffffffffffffffffffffffffffffffffffff021916908373ffffffffffffffffffffffffffffffffffffffff1602179055506020820151815f0160146101000a81548160ff02191690836006811115610fc857610fc7613eff565b5b0217905550604082015181600101556060820151816002019081610fec9190614f68565b5050508473ffffffffffffffffffffffffffffffffffffffff163373ffffffffffffffffffffffffffffffffffffffff167f39a67d0adcd5ba37fe4471de5d1087e6e62a45b561458e60142135f3f562a1188684600201545f426040516110569493929190614d5b565b60405180910390a35b5050505050565b5f803373ffffffffffffffffffffffffffffffffffffffff1673ffffffffffffffffffffffffffffffffffffffff1681526020019081526020015f206002015f9054906101000a900460ff166110f1576040517f08c379a00000000000000000000000000000000000000000000000000000000081526004016110e890614ae6565b60405180910390fd5b6110fd3384848461344f565b61110933848484613a02565b505050565b825f808273ffffffffffffffffffffffffffffffffffffffff1673ffffffffffffffffffffffffffffffffffffffff1681526020019081526020015f206002015f9054906101000a900460ff1661119a576040517f08c379a000000000000000000000000000000000000000000000000000000000815260040161119190614c38565b60405180910390fd5b6111a5843384613c1e565b6111b0843385612766565b156111f0576040517f08c379a00000000000000000000000000000000000000000000000000000000081526004016111e7906150a7565b60405180910390fd5b5f60065f8673ffffffffffffffffffffffffffffffffffffffff1673ffffffffffffffffffffffffffffffffffffffff1681526020019081526020015f205f3373ffffffffffffffffffffffffffffffffffffffff1673ffffffffffffffffffffffffffffffffffffffff1681526020019081526020015f205f85600681111561127d5761127c613eff565b5b600681111561128f5761128e613eff565b5b81526020019081526020015f205490505f81146113d4575f60035f8773ffffffffffffffffffffffffffffffffffffffff1673ffffffffffffffffffffffffffffffffffffffff1681526020019081526020015f206001836112f19190614b8e565b8154811061130257611301614bc1565b5b905f5260205f20906005020190506001600381111561132457611323613eff565b5b816004015f9054906101000a900460ff16600381111561134757611346613eff565b5b03611387576040517f08c379a000000000000000000000000000000000000000000000000000000000815260040161137e9061510f565b60405180910390fd5b4281600101819055508381600201819055505f81600301819055506001816004015f6101000a81548160ff021916908360038111156113c9576113c8613eff565b5b021790555050611657565b5f6040518060c001604052803373ffffffffffffffffffffffffffffffffffffffff16815260200186600681111561140f5761140e613eff565b5b81526020014281526020018581526020015f81526020016001600381111561143a57611439613eff565b5b815250905060035f8773ffffffffffffffffffffffffffffffffffffffff1673ffffffffffffffffffffffffffffffffffffffff1681526020019081526020015f2081908060018154018082558091505060019003905f5260205f2090600502015f909190919091505f820151815f015f6101000a81548173ffffffffffffffffffffffffffffffffffffffff021916908373ffffffffffffffffffffffffffffffffffffffff1602179055506020820151815f0160146101000a81548160ff0219169083600681111561151157611510613eff565b5b021790555060408201518160010155606082015181600201556080820151816003015560a0820151816004015f6101000a81548160ff0219169083600381111561155e5761155d613eff565b5b0217905550505060035f8773ffffffffffffffffffffffffffffffffffffffff1673ffffffffffffffffffffffffffffffffffffffff1681526020019081526020015f208054905060065f8873ffffffffffffffffffffffffffffffffffffffff1673ffffffffffffffffffffffffffffffffffffffff1681526020019081526020015f205f3373ffffffffffffffffffffffffffffffffffffffff1673ffffffffffffffffffffffffffffffffffffffff1681526020019081526020015f205f87600681111561163257611631613eff565b5b600681111561164457611643613eff565b5b81526020019081526020015f2081905550505b60045f8673ffffffffffffffffffffffffffffffffffffffff1673ffffffffffffffffffffffffffffffffffffffff1681526020019081526020015f2060405180608001604052803373ffffffffffffffffffffffffffffffffffffffff1681526020018660068111156116ce576116cd613eff565b5b81526020014281526020016040518060400160405280601081526020017f4143434553535f52455155455354454400000000000000000000000000000000815250815250908060018154018082558091505060019003905f5260205f2090600302015f909190919091505f820151815f015f6101000a81548173ffffffffffffffffffffffffffffffffffffffff021916908373ffffffffffffffffffffffffffffffffffffffff1602179055506020820151815f0160146101000a81548160ff021916908360068111156117a6576117a5613eff565b5b02179055506040820151816001015560608201518160020190816117ca9190614f68565b5050503373ffffffffffffffffffffffffffffffffffffffff168573ffffffffffffffffffffffffffffffffffffffff167ffb3adf94f8331ec661673da316d9bcca9b4a545a87943b74ed2111b1be3de42686864260405161182e9392919061512d565b60405180910390a35050505050565b5f803373ffffffffffffffffffffffffffffffffffffffff1673ffffffffffffffffffffffffffffffffffffffff1681526020019081526020015f206002015f9054906101000a900460ff166118c8576040517f08c379a00000000000000000000000000000000000000000000000000000000081526004016118bf90614ae6565b60405180910390fd5b5f60055f3373ffffffffffffffffffffffffffffffffffffffff1673ffffffffffffffffffffffffffffffffffffffff1681526020019081526020015f205f8473ffffffffffffffffffffffffffffffffffffffff1673ffffffffffffffffffffffffffffffffffffffff1681526020019081526020015f205f83600681111561195557611954613eff565b5b600681111561196757611966613eff565b5b81526020019081526020015f205490505f81036119b9576040517f08c379a00000000000000000000000000000000000000000000000000000000081526004016119b0906151d2565b60405180910390fd5b5f60025f3373ffffffffffffffffffffffffffffffffffffffff1673ffffffffffffffffffffffffffffffffffffffff1681526020019081526020015f20600183611a049190614b8e565b81548110611a1557611a14614bc1565b5b905f5260205f2090600402019050806003015f9054906101000a900460ff1615611a74576040517f08c379a0000000000000000000000000000000000000000000000000000000008152600401611a6b9061523a565b60405180910390fd5b80600201544210611aba576040517f08c379a0000000000000000000000000000000000000000000000000000000008152600401611ab1906152a2565b60405180910390fd5b6001816003015f6101000a81548160ff02191690831515021790555060045f3373ffffffffffffffffffffffffffffffffffffffff1673ffffffffffffffffffffffffffffffffffffffff1681526020019081526020015f2060405180608001604052808673ffffffffffffffffffffffffffffffffffffffff168152602001856006811115611b4d57611b4c613eff565b5b81526020014281526020016040518060400160405280600e81526020017f4143434553535f5245564f4b4544000000000000000000000000000000000000815250815250908060018154018082558091505060019003905f5260205f2090600302015f909190919091505f820151815f015f6101000a81548173ffffffffffffffffffffffffffffffffffffffff021916908373ffffffffffffffffffffffffffffffffffffffff1602179055506020820151815f0160146101000a81548160ff02191690836006811115611c2557611c24613eff565b5b0217905550604082015181600101556060820151816002019081611c499190614f68565b5050508373ffffffffffffffffffffffffffffffffffffffff163373ffffffffffffffffffffffffffffffffffffffff167fc862359f65a943d425c455805a7679353ef1391fb7395bdaabab71bc6cbd0ce08542604051611cab9291906152c0565b60405180910390a350505050565b60605f803373ffffffffffffffffffffffffffffffffffffffff1673ffffffffffffffffffffffffffffffffffffffff1681526020019081526020015f206002015f9054906101000a900460ff16611d46576040517f08c379a0000000000000000000000000000000000000000000000000000000008152600401611d3d90614ae6565b60405180910390fd5b5f60035f3373ffffffffffffffffffffffffffffffffffffffff1673ffffffffffffffffffffffffffffffffffffffff1681526020019081526020015f2090505f805b8280549050811015611e115760016003811115611da957611da8613eff565b5b838281548110611dbc57611dbb614bc1565b5b905f5260205f2090600502016004015f9054906101000a900460ff166003811115611dea57611de9613eff565b5b03611dfe578180611dfa906152e7565b9250505b8080611e09906152e7565b915050611d89565b508067ffffffffffffffff811115611e2c57611e2b614d9e565b5b604051908082528060200260200182016040528015611e6557816020015b611e52613d85565b815260200190600190039081611e4a5790505b5092505f805b83805490508110156120215760016003811115611e8b57611e8a613eff565b5b848281548110611e9e57611e9d614bc1565b5b905f5260205f2090600502016004015f9054906101000a900460ff166003811115611ecc57611ecb613eff565b5b0361200e57838181548110611ee457611ee3614bc1565b5b905f5260205f2090600502016040518060c00160405290815f82015f9054906101000a900473ffffffffffffffffffffffffffffffffffffffff1673ffffffffffffffffffffffffffffffffffffffff1673ffffffffffffffffffffffffffffffffffffffff1681526020015f820160149054906101000a900460ff166006811115611f7357611f72613eff565b5b6006811115611f8557611f84613eff565b5b8152602001600182015481526020016002820154815260200160038201548152602001600482015f9054906101000a900460ff166003811115611fcb57611fca613eff565b5b6003811115611fdd57611fdc613eff565b5b81525050858381518110611ff457611ff3614bc1565b5b6020026020010181905250818061200a906152e7565b9250505b8080612019906152e7565b915050611e6b565b5050505090565b855f808273ffffffffffffffffffffffffffffffffffffffff1673ffffffffffffffffffffffffffffffffffffffff1681526020019081526020015f206002015f9054906101000a900460ff166120b4576040517f08c379a00000000000000000000000000000000000000000000000000000000081526004016120ab90614c38565b60405180910390fd5b5f86869050116120f9576040517f08c379a00000000000000000000000000000000000000000000000000000000081526004016120f090615378565b60405180910390fd5b5f838390501161213e576040517f08c379a0000000000000000000000000000000000000000000000000000000008152600401612135906153e0565b60405180910390fd5b5f6040518060a0016040528088888080601f0160208091040260200160405190810160405280939291908181526020018383808284375f81840152601f19601f8201169050808301925050505050505081526020018660068111156121a6576121a5613eff565b5b815260200185858080601f0160208091040260200160405190810160405280939291908181526020018383808284375f81840152601f19601f8201169050808301925050505050505081526020013373ffffffffffffffffffffffffffffffffffffffff16815260200142815250905060015f8973ffffffffffffffffffffffffffffffffffffffff1673ffffffffffffffffffffffffffffffffffffffff1681526020019081526020015f2081908060018154018082558091505060019003905f5260205f2090600502015f909190919091505f820151815f01908161228d9190614f68565b506020820151816001015f6101000a81548160ff021916908360068111156122b8576122b7613eff565b5b021790555060408201518160020190816122d29190614f68565b506060820151816003015f6101000a81548173ffffffffffffffffffffffffffffffffffffffff021916908373ffffffffffffffffffffffffffffffffffffffff1602179055506080820151816004015550505f6001805f8b73ffffffffffffffffffffffffffffffffffffffff1673ffffffffffffffffffffffffffffffffffffffff1681526020019081526020015f20805490506123729190614b8e565b905060045f8a73ffffffffffffffffffffffffffffffffffffffff1673ffffffffffffffffffffffffffffffffffffffff1681526020019081526020015f2060405180608001604052803373ffffffffffffffffffffffffffffffffffffffff1681526020018860068111156123eb576123ea613eff565b5b81526020014281526020016040518060400160405280600c81526020017f5245434f52445f41444445440000000000000000000000000000000000000000815250815250908060018154018082558091505060019003905f5260205f2090600302015f909190919091505f820151815f015f6101000a81548173ffffffffffffffffffffffffffffffffffffffff021916908373ffffffffffffffffffffffffffffffffffffffff1602179055506020820151815f0160146101000a81548160ff021916908360068111156124c3576124c2613eff565b5b02179055506040820151816001015560608201518160020190816124e79190614f68565b5050503373ffffffffffffffffffffffffffffffffffffffff168973ffffffffffffffffffffffffffffffffffffffff167fdcac37114f4c0dc51c4b07556e42768769d68530202cab945f406fe4b3a9edc0888888864260405161254f959493929190615438565b60405180910390a3505050505050505050565b5f803373ffffffffffffffffffffffffffffffffffffffff1673ffffffffffffffffffffffffffffffffffffffff1681526020019081526020015f206002015f9054906101000a900460ff16156125ee576040517f08c379a00000000000000000000000000000000000000000000000000000000081526004016125e5906154ce565b60405180910390fd5b5f8282905011612633576040517f08c379a000000000000000000000000000000000000000000000000000000000815260040161262a90615536565b60405180910390fd5b604051806060016040528083838080601f0160208091040260200160405190810160405280939291908181526020018383808284375f81840152601f19601f820116905080830192505050505050508152602001428152602001600115158152505f803373ffffffffffffffffffffffffffffffffffffffff1673ffffffffffffffffffffffffffffffffffffffff1681526020019081526020015f205f820151815f0190816126e39190614f68565b50602082015181600101556040820151816002015f6101000a81548160ff0219169083151502179055509050503373ffffffffffffffffffffffffffffffffffffffff167f096f893428730b9f440cde9930f6fbd450ce2d7ac1f2895f0d869da7376a36d183834260405161275a93929190615554565b60405180910390a25050565b5f8060055f8673ffffffffffffffffffffffffffffffffffffffff1673ffffffffffffffffffffffffffffffffffffffff1681526020019081526020015f205f8573ffffffffffffffffffffffffffffffffffffffff1673ffffffffffffffffffffffffffffffffffffffff1681526020019081526020015f205f8460068111156127f4576127f3613eff565b5b600681111561280657612805613eff565b5b81526020019081526020015f205490505f8103612826575f9150506128b6565b5f60025f8773ffffffffffffffffffffffffffffffffffffffff1673ffffffffffffffffffffffffffffffffffffffff1681526020019081526020015f206001836128719190614b8e565b8154811061288257612881614bc1565b5b905f5260205f2090600402019050806003015f9054906101000a900460ff161580156128b15750806002015442105b925050505b9392505050565b6128c5613def565b5f8060055f8773ffffffffffffffffffffffffffffffffffffffff1673ffffffffffffffffffffffffffffffffffffffff1681526020019081526020015f205f8673ffffffffffffffffffffffffffffffffffffffff1673ffffffffffffffffffffffffffffffffffffffff1681526020019081526020015f205f85600681111561295357612952613eff565b5b600681111561296557612964613eff565b5b81526020019081526020015f205490505f810361298857825f9250925050612ac1565b60025f8773ffffffffffffffffffffffffffffffffffffffff1673ffffffffffffffffffffffffffffffffffffffff1681526020019081526020015f206001826129d29190614b8e565b815481106129e3576129e2614bc1565b5b905f5260205f2090600402016001816040518060a00160405290815f82015f9054906101000a900473ffffffffffffffffffffffffffffffffffffffff1673ffffffffffffffffffffffffffffffffffffffff1673ffffffffffffffffffffffffffffffffffffffff1681526020015f820160149054906101000a900460ff166006811115612a7557612a74613eff565b5b6006811115612a8757612a86613eff565b5b81526020016001820154815260200160028201548152602001600382015f9054906101000a900460ff161515151581525050915092509250505b935093915050565b60605f803373ffffffffffffffffffffffffffffffffffffffff1673ffffffffffffffffffffffffffffffffffffffff1681526020019081526020015f206002015f9054906101000a900460ff16612b56576040517f08c379a0000000000000000000000000000000000000000000000000000000008152600401612b4d90614ae6565b60405180910390fd5b60015f3373ffffffffffffffffffffffffffffffffffffffff1673ffffffffffffffffffffffffffffffffffffffff1681526020019081526020015f20805480602002602001604051908101604052809291908181526020015f905b82821015612d9a578382905f5260205f2090600502016040518060a00160405290815f82018054612be290614b31565b80601f0160208091040260200160405190810160405280929190818152602001828054612c0e90614b31565b8015612c595780601f10612c3057610100808354040283529160200191612c59565b820191905f5260205f20905b815481529060010190602001808311612c3c57829003601f168201915b50505050508152602001600182015f9054906101000a900460ff166006811115612c8657612c85613eff565b5b6006811115612c9857612c97613eff565b5b8152602001600282018054612cac90614b31565b80601f0160208091040260200160405190810160405280929190818152602001828054612cd890614b31565b8015612d235780601f10612cfa57610100808354040283529160200191612d23565b820191905f5260205f20905b815481529060010190602001808311612d0657829003601f168201915b50505050508152602001600382015f9054906101000a900473ffffffffffffffffffffffffffffffffffffffff1673ffffffffffffffffffffffffffffffffffffffff1673ffffffffffffffffffffffffffffffffffffffff16815260200160048201548152505081526020019060010190612bb2565b50505050905090565b6060825f808273ffffffffffffffffffffffffffffffffffffffff1673ffffffffffffffffffffffffffffffffffffffff1681526020019081526020015f206002015f9054906101000a900460ff16612e31576040517f08c379a0000000000000000000000000000000000000000000000000000000008152600401612e2890614c38565b60405180910390fd5b5f8473ffffffffffffffffffffffffffffffffffffffff163373ffffffffffffffffffffffffffffffffffffffff1614905080612eb357612e73853386612766565b612eb2576040517f08c379a0000000000000000000000000000000000000000000000000000000008152600401612ea9906155f4565b60405180910390fd5b5b5f60015f8773ffffffffffffffffffffffffffffffffffffffff1673ffffffffffffffffffffffffffffffffffffffff1681526020019081526020015f2090505f805b8280549050811015612f7d57866006811115612f1557612f14613eff565b5b838281548110612f2857612f27614bc1565b5b905f5260205f2090600502016001015f9054906101000a900460ff166006811115612f5657612f55613eff565b5b03612f6a578180612f66906152e7565b9250505b8080612f75906152e7565b915050612ef6565b508067ffffffffffffffff811115612f9857612f97614d9e565b5b604051908082528060200260200182016040528015612fd157816020015b612fbe613e43565b815260200190600190039081612fb65790505b5094505f805b838054905081101561325e57876006811115612ff657612ff5613eff565b5b84828154811061300957613008614bc1565b5b905f5260205f2090600502016001015f9054906101000a900460ff16600681111561303757613036613eff565b5b0361324b5783818154811061304f5761304e614bc1565b5b905f5260205f2090600502016040518060a00160405290815f8201805461307590614b31565b80601f01602080910402602001604051908101604052809291908181526020018280546130a190614b31565b80156130ec5780601f106130c3576101008083540402835291602001916130ec565b820191905f5260205f20905b8154815290600101906020018083116130cf57829003601f168201915b50505050508152602001600182015f9054906101000a900460ff16600681111561311957613118613eff565b5b600681111561312b5761312a613eff565b5b815260200160028201805461313f90614b31565b80601f016020809104026020016040519081016040528092919081815260200182805461316b90614b31565b80156131b65780601f1061318d576101008083540402835291602001916131b6565b820191905f5260205f20905b81548152906001019060200180831161319957829003601f168201915b50505050508152602001600382015f9054906101000a900473ffffffffffffffffffffffffffffffffffffffff1673ffffffffffffffffffffffffffffffffffffffff1673ffffffffffffffffffffffffffffffffffffffff16815260200160048201548152505087838151811061323157613230614bc1565b5b60200260200101819052508180613247906152e7565b9250505b8080613256906152e7565b915050612fd7565b50836134445760045f8973ffffffffffffffffffffffffffffffffffffffff1673ffffffffffffffffffffffffffffffffffffffff1681526020019081526020015f2060405180608001604052803373ffffffffffffffffffffffffffffffffffffffff1681526020018960068111156132db576132da613eff565b5b81526020014281526020016040518060400160405280600b81526020017f4143434553535f55534544000000000000000000000000000000000000000000815250815250908060018154018082558091505060019003905f5260205f2090600302015f909190919091505f820151815f015f6101000a81548173ffffffffffffffffffffffffffffffffffffffff021916908373ffffffffffffffffffffffffffffffffffffffff1602179055506020820151815f0160146101000a81548160ff021916908360068111156133b3576133b2613eff565b5b02179055506040820151816001015560608201518160020190816133d79190614f68565b5050503373ffffffffffffffffffffffffffffffffffffffff168873ffffffffffffffffffffffffffffffffffffffff167f0a2a95e58638fecdaaaf8b3fc97dbe6c9ad6ea0691e858668f805b2311ac0db589854260405161343b9392919061512d565b60405180910390a35b505050505092915050565b61345a848483613c1e565b5f610e10826134699190615612565b426134749190615653565b90505f60055f8773ffffffffffffffffffffffffffffffffffffffff1673ffffffffffffffffffffffffffffffffffffffff1681526020019081526020015f205f8673ffffffffffffffffffffffffffffffffffffffff1673ffffffffffffffffffffffffffffffffffffffff1681526020019081526020015f205f85600681111561350357613502613eff565b5b600681111561351557613514613eff565b5b81526020019081526020015f205490505f81146135c9575f60025f8873ffffffffffffffffffffffffffffffffffffffff1673ffffffffffffffffffffffffffffffffffffffff1681526020019081526020015f206001836135779190614b8e565b8154811061358857613587614bc1565b5b905f5260205f20906004020190504281600101819055508281600201819055505f816003015f6101000a81548160ff0219169083151502179055505061381b565b5f6040518060a001604052808773ffffffffffffffffffffffffffffffffffffffff16815260200186600681111561360457613603613eff565b5b81526020014281526020018481526020015f1515815250905060025f8873ffffffffffffffffffffffffffffffffffffffff1673ffffffffffffffffffffffffffffffffffffffff1681526020019081526020015f2081908060018154018082558091505060019003905f5260205f2090600402015f909190919091505f820151815f015f6101000a81548173ffffffffffffffffffffffffffffffffffffffff021916908373ffffffffffffffffffffffffffffffffffffffff1602179055506020820151815f0160146101000a81548160ff021916908360068111156136ef576136ee613eff565b5b021790555060408201518160010155606082015181600201556080820151816003015f6101000a81548160ff021916908315150217905550505060025f8873ffffffffffffffffffffffffffffffffffffffff1673ffffffffffffffffffffffffffffffffffffffff1681526020019081526020015f208054905060055f8973ffffffffffffffffffffffffffffffffffffffff1673ffffffffffffffffffffffffffffffffffffffff1681526020019081526020015f205f8873ffffffffffffffffffffffffffffffffffffffff1673ffffffffffffffffffffffffffffffffffffffff1681526020019081526020015f205f8760068111156137f6576137f5613eff565b5b600681111561380857613807613eff565b5b81526020019081526020015f2081905550505b60045f8773ffffffffffffffffffffffffffffffffffffffff1673ffffffffffffffffffffffffffffffffffffffff1681526020019081526020015f2060405180608001604052808773ffffffffffffffffffffffffffffffffffffffff16815260200186600681111561389257613891613eff565b5b81526020014281526020016040518060400160405280600e81526020017f4143434553535f4752414e544544000000000000000000000000000000000000815250815250908060018154018082558091505060019003905f5260205f2090600302015f909190919091505f820151815f015f6101000a81548173ffffffffffffffffffffffffffffffffffffffff021916908373ffffffffffffffffffffffffffffffffffffffff1602179055506020820151815f0160146101000a81548160ff0219169083600681111561396a57613969613eff565b5b021790555060408201518160010155606082015181600201908161398e9190614f68565b5050508473ffffffffffffffffffffffffffffffffffffffff168673ffffffffffffffffffffffffffffffffffffffff167fff5895089d83a4d7e3281d19c29f77676846b906243ac76f1fd731a91ae40a6f8685426040516139f29392919061512d565b60405180910390a3505050505050565b5f60065f8673ffffffffffffffffffffffffffffffffffffffff1673ffffffffffffffffffffffffffffffffffffffff1681526020019081526020015f205f8573ffffffffffffffffffffffffffffffffffffffff1673ffffffffffffffffffffffffffffffffffffffff1681526020019081526020015f205f846006811115613a8f57613a8e613eff565b5b6006811115613aa157613aa0613eff565b5b81526020019081526020015f205490505f8103613abe5750613c18565b5f60035f8773ffffffffffffffffffffffffffffffffffffffff1673ffffffffffffffffffffffffffffffffffffffff1681526020019081526020015f20600183613b099190614b8e565b81548110613b1a57613b19614bc1565b5b905f5260205f209060050201905060026003811115613b3c57613b3b613eff565b5b816004015f9054906101000a900460ff166003811115613b5f57613b5e613eff565b5b03613b6b575050613c18565b8281600201819055504281600301819055506002816004015f6101000a81548160ff02191690836003811115613ba457613ba3613eff565b5b02179055508473ffffffffffffffffffffffffffffffffffffffff168673ffffffffffffffffffffffffffffffffffffffff167f39a67d0adcd5ba37fe4471de5d1087e6e62a45b561458e60142135f3f562a1188686600142604051613c0d9493929190614d5b565b60405180910390a350505b50505050565b5f73ffffffffffffffffffffffffffffffffffffffff168273ffffffffffffffffffffffffffffffffffffffff1603613c8c576040517f08c379a0000000000000000000000000000000000000000000000000000000008152600401613c83906156d0565b60405180910390fd5b8273ffffffffffffffffffffffffffffffffffffffff168273ffffffffffffffffffffffffffffffffffffffff1603613cfa576040517f08c379a0000000000000000000000000000000000000000000000000000000008152600401613cf190615738565b60405180910390fd5b5f8111613d3c576040517f08c379a0000000000000000000000000000000000000000000000000000000008152600401613d33906157a0565b60405180910390fd5b60a8811115613d80576040517f08c379a0000000000000000000000000000000000000000000000000000000008152600401613d7790615808565b60405180910390fd5b505050565b6040518060c001604052805f73ffffffffffffffffffffffffffffffffffffffff1681526020015f6006811115613dbf57613dbe613eff565b5b81526020015f81526020015f81526020015f81526020015f6003811115613de957613de8613eff565b5b81525090565b6040518060a001604052805f73ffffffffffffffffffffffffffffffffffffffff1681526020015f6006811115613e2957613e28613eff565b5b81526020015f81526020015f81526020015f151581525090565b6040518060a00160405280606081526020015f6006811115613e6857613e67613eff565b5b8152602001606081526020015f73ffffffffffffffffffffffffffffffffffffffff1681526020015f81525090565b5f81519050919050565b5f82825260208201905092915050565b5f819050602082019050919050565b5f73ffffffffffffffffffffffffffffffffffffffff82169050919050565b5f613ee982613ec0565b9050919050565b613ef981613edf565b82525050565b7f4e487b71000000000000000000000000000000000000000000000000000000005f52602160045260245ffd5b60078110613f3d57613f3c613eff565b5b50565b5f819050613f4d82613f2c565b919050565b5f613f5c82613f40565b9050919050565b613f6c81613f52565b82525050565b5f819050919050565b613f8481613f72565b82525050565b5f8115159050919050565b613f9e81613f8a565b82525050565b60a082015f820151613fb85f850182613ef0565b506020820151613fcb6020850182613f63565b506040820151613fde6040850182613f7b565b506060820151613ff16060850182613f7b565b5060808201516140046080850182613f95565b50505050565b5f6140158383613fa4565b60a08301905092915050565b5f602082019050919050565b5f61403782613e97565b6140418185613ea1565b935061404c83613eb1565b805f5b8381101561407c578151614063888261400a565b975061406e83614021565b92505060018101905061404f565b5085935050505092915050565b5f6020820190508181035f8301526140a1818461402d565b905092915050565b5f80fd5b5f80fd5b6140ba81613edf565b81146140c4575f80fd5b50565b5f813590506140d5816140b1565b92915050565b5f602082840312156140f0576140ef6140a9565b5b5f6140fd848285016140c7565b91505092915050565b5f81519050919050565b5f82825260208201905092915050565b5f5b8381101561413d578082015181840152602081019050614122565b5f8484015250505050565b5f601f19601f8301169050919050565b5f61416282614106565b61416c8185614110565b935061417c818560208601614120565b61418581614148565b840191505092915050565b61419981613f72565b82525050565b6141a881613f8a565b82525050565b5f6060820190508181035f8301526141c68186614158565b90506141d56020830185614190565b6141e2604083018461419f565b949350505050565b5f81519050919050565b5f82825260208201905092915050565b5f819050602082019050919050565b5f82825260208201905092915050565b5f61422d82614106565b6142378185614213565b9350614247818560208601614120565b61425081614148565b840191505092915050565b5f608083015f8301516142705f860182613ef0565b5060208301516142836020860182613f63565b5060408301516142966040860182613f7b565b50606083015184820360608601526142ae8282614223565b9150508091505092915050565b5f6142c6838361425b565b905092915050565b5f602082019050919050565b5f6142e4826141ea565b6142ee81856141f4565b93508360208202850161430085614204565b805f5b8581101561433b578484038952815161431c85826142bb565b9450614327836142ce565b925060208a01995050600181019050614303565b50829750879550505050505092915050565b5f6020820190508181035f83015261436581846142da565b905092915050565b60078110614379575f80fd5b50565b5f8135905061438a8161436d565b92915050565b5f805f606084860312156143a7576143a66140a9565b5b5f6143b4868287016140c7565b93505060206143c5868287016140c7565b92505060406143d68682870161437c565b9150509250925092565b600481106143f1576143f0613eff565b5b50565b5f819050614401826143e0565b919050565b5f614410826143f4565b9050919050565b61442081614406565b82525050565b60c082015f82015161443a5f850182613ef0565b50602082015161444d6020850182613f63565b5060408201516144606040850182613f7b565b5060608201516144736060850182613f7b565b5060808201516144866080850182613f7b565b5060a082015161449960a0850182614417565b50505050565b5f60e0820190506144b25f830185614426565b6144bf60c083018461419f565b9392505050565b5f6020820190506144d95f830184614190565b92915050565b6144e881613f8a565b81146144f2575f80fd5b50565b5f81359050614503816144df565b92915050565b5f805f606084860312156145205761451f6140a9565b5b5f61452d868287016140c7565b935050602061453e8682870161437c565b925050604061454f868287016144f5565b9150509250925092565b61456281613f72565b811461456c575f80fd5b50565b5f8135905061457d81614559565b92915050565b5f805f6060848603121561459a576145996140a9565b5b5f6145a7868287016140c7565b93505060206145b88682870161437c565b92505060406145c98682870161456f565b9150509250925092565b5f80604083850312156145e9576145e86140a9565b5b5f6145f6858286016140c7565b92505060206146078582860161437c565b9150509250929050565b5f81519050919050565b5f82825260208201905092915050565b5f819050602082019050919050565b60c082015f82015161464e5f850182613ef0565b5060208201516146616020850182613f63565b5060408201516146746040850182613f7b565b5060608201516146876060850182613f7b565b50608082015161469a6080850182613f7b565b5060a08201516146ad60a0850182614417565b50505050565b5f6146be838361463a565b60c08301905092915050565b5f602082019050919050565b5f6146e082614611565b6146ea818561461b565b93506146f58361462b565b805f5b8381101561472557815161470c88826146b3565b9750614717836146ca565b9250506001810190506146f8565b5085935050505092915050565b5f6020820190508181035f83015261474a81846146d6565b905092915050565b5f80fd5b5f80fd5b5f80fd5b5f8083601f84011261477357614772614752565b5b8235905067ffffffffffffffff8111156147905761478f614756565b5b6020830191508360018202830111156147ac576147ab61475a565b5b9250929050565b5f805f805f80608087890312156147cd576147cc6140a9565b5b5f6147da89828a016140c7565b965050602087013567ffffffffffffffff8111156147fb576147fa6140ad565b5b61480789828a0161475e565b9550955050604061481a89828a0161437c565b935050606087013567ffffffffffffffff81111561483b5761483a6140ad565b5b61484789828a0161475e565b92509250509295509295509295565b5f806020838503121561486c5761486b6140a9565b5b5f83013567ffffffffffffffff811115614889576148886140ad565b5b6148958582860161475e565b92509250509250929050565b5f6020820190506148b45f83018461419f565b92915050565b60a082015f8201516148ce5f850182613ef0565b5060208201516148e16020850182613f63565b5060408201516148f46040850182613f7b565b5060608201516149076060850182613f7b565b50608082015161491a6080850182613f95565b50505050565b5f60c0820190506149335f8301856148ba565b61494060a083018461419f565b9392505050565b5f81519050919050565b5f82825260208201905092915050565b5f819050602082019050919050565b5f60a083015f8301518482035f86015261498a8282614223565b915050602083015161499f6020860182613f63565b50604083015184820360408601526149b78282614223565b91505060608301516149cc6060860182613ef0565b5060808301516149df6080860182613f7b565b508091505092915050565b5f6149f58383614970565b905092915050565b5f602082019050919050565b5f614a1382614947565b614a1d8185614951565b935083602082028501614a2f85614961565b805f5b85811015614a6a5784840389528151614a4b85826149ea565b9450614a56836149fd565b925060208a01995050600181019050614a32565b50829750879550505050505092915050565b5f6020820190508181035f830152614a948184614a09565b905092915050565b7f4e6f74206120726567697374657265642070617469656e7400000000000000005f82015250565b5f614ad0601883614110565b9150614adb82614a9c565b602082019050919050565b5f6020820190508181035f830152614afd81614ac4565b9050919050565b7f4e487b71000000000000000000000000000000000000000000000000000000005f52602260045260245ffd5b5f6002820490506001821680614b4857607f821691505b602082108103614b5b57614b5a614b04565b5b50919050565b7f4e487b71000000000000000000000000000000000000000000000000000000005f52601160045260245ffd5b5f614b9882613f72565b9150614ba383613f72565b9250828203905081811115614bbb57614bba614b61565b5b92915050565b7f4e487b71000000000000000000000000000000000000000000000000000000005f52603260045260245ffd5b7f50617469656e7420646f6573206e6f74206578697374000000000000000000005f82015250565b5f614c22601683614110565b9150614c2d82614bee565b602082019050919050565b5f6020820190508181035f830152614c4f81614c16565b9050919050565b7f4e6f2061636365737320726571756573742065786973747320666f72207468695f8201527f7320646f63746f722f63617465676f7279000000000000000000000000000000602082015250565b5f614cb0603183614110565b9150614cbb82614c56565b604082019050919050565b5f6020820190508181035f830152614cdd81614ca4565b9050919050565b7f4163636573732072657175657374206973206e6f742070656e64696e670000005f82015250565b5f614d18601d83614110565b9150614d2382614ce4565b602082019050919050565b5f6020820190508181035f830152614d4581614d0c565b9050919050565b614d5581613f52565b82525050565b5f608082019050614d6e5f830187614d4c565b614d7b6020830186614190565b614d88604083018561419f565b614d956060830184614190565b95945050505050565b7f4e487b71000000000000000000000000000000000000000000000000000000005f52604160045260245ffd5b5f819050815f5260205f209050919050565b5f6020601f8301049050919050565b5f82821b905092915050565b5f60088302614e277fffffffffffffffffffffffffffffffffffffffffffffffffffffffffffffffff82614dec565b614e318683614dec565b95508019841693508086168417925050509392505050565b5f819050919050565b5f614e6c614e67614e6284613f72565b614e49565b613f72565b9050919050565b5f819050919050565b614e8583614e52565b614e99614e9182614e73565b848454614df8565b825550505050565b5f90565b614ead614ea1565b614eb8818484614e7c565b505050565b5b81811015614edb57614ed05f82614ea5565b600181019050614ebe565b5050565b601f821115614f2057614ef181614dcb565b614efa84614ddd565b81016020851015614f09578190505b614f1d614f1585614ddd565b830182614ebd565b50505b505050565b5f82821c905092915050565b5f614f405f1984600802614f25565b1980831691505092915050565b5f614f588383614f31565b9150826002028217905092915050565b614f7182614106565b67ffffffffffffffff811115614f8a57614f89614d9e565b5b614f948254614b31565b614f9f828285614edf565b5f60209050601f831160018114614fd0575f8415614fbe578287015190505b614fc88582614f4d565b86555061502f565b601f198416614fde86614dcb565b5f5b8281101561500557848901518255600182019150602085019450602081019050614fe0565b86831015615022578489015161501e601f891682614f31565b8355505b6001600288020188555050505b505050505050565b7f41636365737320616c72656164792061637469766520666f72207468697320635f8201527f617465676f727900000000000000000000000000000000000000000000000000602082015250565b5f615091602783614110565b915061509c82615037565b604082019050919050565b5f6020820190508181035f8301526150be81615085565b9050919050565b7f416363657373207265717565737420616c72656164792070656e64696e6700005f82015250565b5f6150f9601e83614110565b9150615104826150c5565b602082019050919050565b5f6020820190508181035f830152615126816150ed565b9050919050565b5f6060820190506151405f830186614d4c565b61514d6020830185614190565b61515a6040830184614190565b949350505050565b7f4e6f206772616e742065786973747320666f72207468697320646f63746f722f5f8201527f63617465676f7279000000000000000000000000000000000000000000000000602082015250565b5f6151bc602883614110565b91506151c782615162565b604082019050919050565b5f6020820190508181035f8301526151e9816151b0565b9050919050565b7f41636365737320616c7265616479207265766f6b6564000000000000000000005f82015250565b5f615224601683614110565b915061522f826151f0565b602082019050919050565b5f6020820190508181035f83015261525181615218565b9050919050565b7f41636365737320616c72656164792065787069726564000000000000000000005f82015250565b5f61528c601683614110565b915061529782615258565b602082019050919050565b5f6020820190508181035f8301526152b981615280565b9050919050565b5f6040820190506152d35f830185614d4c565b6152e06020830184614190565b9392505050565b5f6152f182613f72565b91507fffffffffffffffffffffffffffffffffffffffffffffffffffffffffffffffff820361532357615322614b61565b5b600182019050919050565b7f49504653204349442063616e6e6f7420626520656d70747900000000000000005f82015250565b5f615362601883614110565b915061536d8261532e565b602082019050919050565b5f6020820190508181035f83015261538f81615356565b9050919050565b7f5265636f726420747970652063616e6e6f7420626520656d70747900000000005f82015250565b5f6153ca601b83614110565b91506153d582615396565b602082019050919050565b5f6020820190508181035f8301526153f7816153be565b9050919050565b828183375f83830152505050565b5f6154178385614110565b93506154248385846153fe565b61542d83614148565b840190509392505050565b5f60808201905061544b5f830188614d4c565b818103602083015261545e81868861540c565b905061546d6040830185614190565b61547a6060830184614190565b9695505050505050565b7f50617469656e7420616c726561647920726567697374657265640000000000005f82015250565b5f6154b8601a83614110565b91506154c382615484565b602082019050919050565b5f6020820190508181035f8301526154e5816154ac565b9050919050565b7f4e616d652063616e6e6f7420626520656d7074790000000000000000000000005f82015250565b5f615520601483614110565b915061552b826154ec565b602082019050919050565b5f6020820190508181035f83015261554d81615514565b9050919050565b5f6040820190508181035f83015261556d81858761540c565b905061557c6020830184614190565b949350505050565b7f4163636573732064656e6965643a206e6f20616374697665206772616e7420665f8201527f6f7220746869732063617465676f727900000000000000000000000000000000602082015250565b5f6155de603083614110565b91506155e982615584565b604082019050919050565b5f6020820190508181035f83015261560b816155d2565b9050919050565b5f61561c82613f72565b915061562783613f72565b925082820261563581613f72565b9150828204841483151761564c5761564b614b61565b5b5092915050565b5f61565d82613f72565b915061566883613f72565b92508282019050808211156156805761567f614b61565b5b92915050565b7f496e76616c696420646f63746f722061646472657373000000000000000000005f82015250565b5f6156ba601683614110565b91506156c582615686565b602082019050919050565b5f6020820190508181035f8301526156e7816156ae565b9050919050565b7f43616e6e6f74206772616e742061636365737320746f20796f757273656c66005f82015250565b5f615722601f83614110565b915061572d826156ee565b602082019050919050565b5f6020820190508181035f83015261574f81615716565b9050919050565b7f4475726174696f6e206d757374206265203e20300000000000000000000000005f82015250565b5f61578a601483614110565b915061579582615756565b602082019050919050565b5f6020820190508181035f8301526157b78161577e565b9050919050565b7f4475726174696f6e2063616e6e6f7420657863656564203720646179730000005f82015250565b5f6157f2601d83614110565b91506157fd826157be565b602082019050919050565b5f6020820190508181035f83015261581f816157e6565b905091905056fea26469706673582212203dbe0fdd0143cdf991de0a0a63c1a42701e5749e331ea9ded298f74422eebc7064736f6c63430008140033","linkReferences":{}},"methodIdentifiers":{"addRecord(address,string,uint8,string)":"7f81622a","getAccessRequestDetails(address,address,uint8)":"250607e1","getGrantDetails(address,address,uint8)":"ab62062f","getMyAccessGrants()":"0053262a","getMyAuditLog()":"0c4cfe8a","getMyPendingAccessRequests()":"71bfceed","getMyRecords()":"e76637ce","getRecordCount(address)":"58214308","getRecordsByCategory(address,uint8)":"e9c6db16","grantAccess(address,uint8,uint256)":"6c52df4e","hasActiveAccess(address,address,uint8)":"9b711bef","patients(address)":"0869cfbc","registerPatient(string)":"869c9eaf","requestAccess(address,uint8,uint256)":"6cf0d1ba","respondToAccessRequest(address,uint8,bool)":"61cd0e80","revokeAccess(address,uint8)":"6f925535"},"id":19}