{"abi":[{"type":"function","name":"addRecord","inputs":[{"name":"_patient","type":"address","internalType":"address"},{"name":"_ipfsCID","type":"string","internalType":"string"},{"name":"_category","type":"uint8","internalType":"enum NetsanetCore.RecordCategory"},{"name":"_recordType","type":"string","internalType":"string"}],"outputs":[],"stateMutability":"nonpayable"},{"type":"function","name":"getGrantDetails","inputs":[{"name":"_patient","type":"address","internalType":"address"},{"name":"_doctor","type":"address","internalType":"address"},{"name":"_category","type":"uint8","internalType":"enum NetsanetCore.RecordCategory"}],"outputs":[{"name":"grant","type":"tuple","internalType":"struct NetsanetCore.AccessGrant","components":[{"name":"doctor","type":"address","internalType":"address"},{"name":"category","type":"uint8","internalType":"enum NetsanetCore.RecordCategory"},{"name":"grantedAt","type":"uint256","internalType":"uint256"},{"name":"expiresAt","type":"uint256","internalType":"uint256"},{"name":"revoked","type":"bool","internalType":"bool"}]},{"name":"exists","type":"bool","internalType":"bool"}],"stateMutability":"view"},{"type":"function","name":"getMyAccessGrants","inputs":[],"outputs":[{"name":"","type":"tuple[]","internalType":"struct NetsanetCore.AccessGrant[]","components":[{"name":"doctor","type":"address","internalType":"address"},{"name":"category","type":"uint8","internalType":"enum NetsanetCore.RecordCategory"},{"name":"grantedAt","type":"uint256","internalType":"uint256"},{"name":"expiresAt","type":"uint256","internalType":"uint256"},{"name":"revoked","type":"bool","internalType":"bool"}]}],"stateMutability":"view"},{"type":"function","name":"getMyAuditLog","inputs":[],"outputs":[{"name":"","type":"tuple[]","internalType":"struct NetsanetCore.AuditEntry[]","components":[{"name":"accessor","type":"address","internalType":"address"},{"name":"category","type":"uint8","internalType":"enum NetsanetCore.RecordCategory"},{"name":"timestamp","type":"uint256","internalType":"uint256"},{"name":"action","type":"string","internalType":"string"}]}],"stateMutability":"view"},{"type":"function","name":"getMyRecords","inputs":[],"outputs":[{"name":"","type":"tuple[]","internalType":"struct NetsanetCore.MedicalRecord[]","components":[{"name":"ipfsCID","type":"string","internalType":"string"},{"name":"category","type":"uint8","internalType":"enum NetsanetCore.RecordCategory"},{"name":"recordType","type":"string","internalType":"string"},{"name":"addedByClinic","type":"address","internalType":"address"},{"name":"timestamp","type":"uint256","internalType":"uint256"}]}],"stateMutability":"view"},{"type":"function","name":"getRecordCount","inputs":[{"name":"_patient","type":"address","internalType":"address"}],"outputs":[{"name":"","type":"uint256","internalType":"uint256"}],"stateMutability":"view"},{"type":"function","name":"getRecordsByCategory","inputs":[{"name":"_patient","type":"address","internalType":"address"},{"name":"_category","type":"uint8","internalType":"enum NetsanetCore.RecordCategory"}],"outputs":[{"name":"filtered","type":"tuple[]","internalType":"struct NetsanetCore.MedicalRecord[]","components":[{"name":"ipfsCID","type":"string","internalType":"string"},{"name":"category","type":"uint8","internalType":"enum NetsanetCore.RecordCategory"},{"name":"recordType","type":"string","internalType":"string"},{"name":"addedByClinic","type":"address","internalType":"address"},{"name":"timestamp","type":"uint256","internalType":"uint256"}]}],"stateMutability":"nonpayable"},{"type":"function","name":"grantAccess","inputs":[{"name":"_doctor","type":"address","internalType":"address"},{"name":"_category","type":"uint8","internalType":"enum NetsanetCore.RecordCategory"},{"name":"_durationHours","type":"uint256","internalType":"uint256"}],"outputs":[],"stateMutability":"nonpayable"},{"type":"function","name":"hasActiveAccess","inputs":[{"name":"_patient","type":"address","internalType":"address"},{"name":"_doctor","type":"address","internalType":"address"},{"name":"_category","type":"uint8","internalType":"enum NetsanetCore.RecordCategory"}],"outputs":[{"name":"","type":"bool","internalType":"bool"}],"stateMutability":"view"},{"type":"function","name":"patients","inputs":[{"name":"","type":"address","internalType":"address"}],"outputs":[{"name":"name","type":"string","internalType":"string"},{"name":"createdAt","type":"uint256","internalType":"uint256"},{"name":"exists","type":"bool","internalType":"bool"}],"stateMutability":"view"},{"type":"function","name":"registerPatient","inputs":[{"name":"_name","type":"string","internalType":"string"}],"outputs":[],"stateMutability":"nonpayable"},{"type":"function","name":"revokeAccess","inputs":[{"name":"_doctor","type":"address","internalType":"address"},{"name":"_category","type":"uint8","internalType":"enum NetsanetCore.RecordCategory"}],"outputs":[],"stateMutability":"nonpayable"},{"type":"event","name":"AccessGranted","inputs":[{"name":"patient","type":"address","indexed":true,"internalType":"address"},{"name":"doctor","type":"address","indexed":true,"internalType":"address"},{"name":"category","type":"uint8","indexed":false,"internalType":"enum NetsanetCore.RecordCategory"},{"name":"expiresAt","type":"uint256","indexed":false,"internalType":"uint256"},{"name":"timestamp","type":"uint256","indexed":false,"internalType":"uint256"}],"anonymous":false},{"type":"event","name":"AccessRevoked","inputs":[{"name":"patient","type":"address","indexed":true,"internalType":"address"},{"name":"doctor","type":"address","indexed":true,"internalType":"address"},{"name":"category","type":"uint8","indexed":false,"internalType":"enum NetsanetCore.RecordCategory"},{"name":"timestamp","type":"uint256","indexed":false,"internalType":"uint256"}],"anonymous":false},{"type":"event","name":"AccessUsed","inputs":[{"name":"patient","type":"address","indexed":true,"internalType":"address"},{"name":"doctor","type":"address","indexed":true,"internalType":"address"},{"name":"category","type":"uint8","indexed":false,"internalType":"enum NetsanetCore.RecordCategory"},{"name":"recordCount","type":"uint256","indexed":false,"internalType":"uint256"},{"name":"timestamp","type":"uint256","indexed":false,"internalType":"uint256"}],"anonymous":false},{"type":"event","name":"PatientRegistered","inputs":[{"name":"patient","type":"address","indexed":true,"internalType":"address"},{"name":"name","type":"string","indexed":false,"internalType":"string"},{"name":"timestamp","type":"uint256","indexed":false,"internalType":"uint256"}],"anonymous":false},{"type":"event","name":"RecordAdded","inputs":[{"name":"patient","type":"address","indexed":true,"internalType":"address"},{"name":"clinic","type":"address","indexed":true,"internalType":"address"},{"name":"category","type":"uint8","indexed":false,"internalType":"enum NetsanetCore.RecordCategory"},{"name":"recordType","type":"string","indexed":false,"internalType":"string"},{"name":"recordIndex","type":"uint256","indexed":false,"internalType":"uint256"},{"name":"timestamp","type":"uint256","indexed":false,"internalType":"uint256"}],"anonymous":false}],"bytecode":{"object":"0x608060405234801561000f575f80fd5b50613e268061001d5f395ff3fe608060405234801561000f575f80fd5b50600436106100b1575f3560e01c80637f81622a1161006f5780637f81622a1461018b578063869c9eaf146101a75780639b711bef146101c3578063ab62062f146101f3578063e76637ce14610224578063e9c6db1614610242576100b1565b806253262a146100b55780630869cfbc146100d35780630c4cfe8a1461010557806358214308146101235780636c52df4e146101535780636f9255351461016f575b5f80fd5b6100bd610272565b6040516100ca9190612b23565b60405180910390f35b6100ed60048036038101906100e89190612b75565b610450565b6040516100fc93929190612c48565b60405180910390f35b61010d610507565b60405161011a9190612de7565b60405180910390f35b61013d60048036038101906101389190612b75565b610751565b60405161014a9190612e07565b60405180910390f35b61016d60048036038101906101689190612e6d565b610827565b005b61018960048036038101906101849190612ebd565b610fe6565b005b6101a560048036038101906101a09190612f5c565b611462565b005b6101c160048036038101906101bc9190612fff565b61199c565b005b6101dd60048036038101906101d8919061304a565b611ba0565b6040516101ea919061309a565b60405180910390f35b61020d6004803603810190610208919061304a565b611cf7565b60405161021b929190613119565b60405180910390f35b61022c611f03565b6040516102399190613275565b60405180910390f35b61025c60048036038101906102579190612ebd565b6121dd565b6040516102699190613275565b60405180910390f35b60605f803373ffffffffffffffffffffffffffffffffffffffff1673ffffffffffffffffffffffffffffffffffffffff1681526020019081526020015f206002015f9054906101000a900460ff166102ff576040517f08c379a00000000000000000000000000000000000000000000000000000000081526004016102f6906132df565b60405180910390fd5b60025f3373ffffffffffffffffffffffffffffffffffffffff1673ffffffffffffffffffffffffffffffffffffffff1681526020019081526020015f20805480602002602001604051908101604052809291908181526020015f905b82821015610447578382905f5260205f2090600402016040518060a00160405290815f82015f9054906101000a900473ffffffffffffffffffffffffffffffffffffffff1673ffffffffffffffffffffffffffffffffffffffff1673ffffffffffffffffffffffffffffffffffffffff1681526020015f820160149054906101000a900460ff1660068111156103f4576103f3612999565b5b600681111561040657610405612999565b5b81526020016001820154815260200160028201548152602001600382015f9054906101000a900460ff1615151515815250508152602001906001019061035b565b50505050905090565b5f602052805f5260405f205f91509050805f01805461046e9061332a565b80601f016020809104026020016040519081016040528092919081815260200182805461049a9061332a565b80156104e55780601f106104bc576101008083540402835291602001916104e5565b820191905f5260205f20905b8154815290600101906020018083116104c857829003601f168201915b505050505090806001015490806002015f9054906101000a900460ff16905083565b60605f803373ffffffffffffffffffffffffffffffffffffffff1673ffffffffffffffffffffffffffffffffffffffff1681526020019081526020015f206002015f9054906101000a900460ff16610594576040517f08c379a000000000000000000000000000000000000000000000000000000000815260040161058b906132df565b60405180910390fd5b60045f3373ffffffffffffffffffffffffffffffffffffffff1673ffffffffffffffffffffffffffffffffffffffff1681526020019081526020015f20805480602002602001604051908101604052809291908181526020015f905b82821015610748578382905f5260205f2090600302016040518060800160405290815f82015f9054906101000a900473ffffffffffffffffffffffffffffffffffffffff1673ffffffffffffffffffffffffffffffffffffffff1673ffffffffffffffffffffffffffffffffffffffff1681526020015f820160149054906101000a900460ff16600681111561068957610688612999565b5b600681111561069b5761069a612999565b5b8152602001600182015481526020016002820180546106b99061332a565b80601f01602080910402602001604051908101604052809291908181526020018280546106e59061332a565b80156107305780601f1061070757610100808354040283529160200191610730565b820191905f5260205f20905b81548152906001019060200180831161071357829003601f168201915b505050505081525050815260200190600101906105f0565b50505050905090565b5f815f808273ffffffffffffffffffffffffffffffffffffffff1673ffffffffffffffffffffffffffffffffffffffff1681526020019081526020015f206002015f9054906101000a900460ff166107de576040517f08c379a00000000000000000000000000000000000000000000000000000000081526004016107d5906133a4565b60405180910390fd5b60015f8473ffffffffffffffffffffffffffffffffffffffff1673ffffffffffffffffffffffffffffffffffffffff1681526020019081526020015f2080549050915050919050565b5f803373ffffffffffffffffffffffffffffffffffffffff1673ffffffffffffffffffffffffffffffffffffffff1681526020019081526020015f206002015f9054906101000a900460ff166108b2576040517f08c379a00000000000000000000000000000000000000000000000000000000081526004016108a9906132df565b60405180910390fd5b5f73ffffffffffffffffffffffffffffffffffffffff168373ffffffffffffffffffffffffffffffffffffffff1603610920576040517f08c379a00000000000000000000000000000000000000000000000000000000081526004016109179061340c565b60405180910390fd5b3373ffffffffffffffffffffffffffffffffffffffff168373ffffffffffffffffffffffffffffffffffffffff160361098e576040517f08c379a000000000000000000000000000000000000000000000000000000000815260040161098590613474565b60405180910390fd5b5f81116109d0576040517f08c379a00000000000000000000000000000000000000000000000000000000081526004016109c7906134dc565b60405180910390fd5b60a8811115610a14576040517f08c379a0000000000000000000000000000000000000000000000000000000008152600401610a0b90613544565b60405180910390fd5b5f60035f3373ffffffffffffffffffffffffffffffffffffffff1673ffffffffffffffffffffffffffffffffffffffff1681526020019081526020015f205f8573ffffffffffffffffffffffffffffffffffffffff1673ffffffffffffffffffffffffffffffffffffffff1681526020019081526020015f205f846006811115610aa157610aa0612999565b5b6006811115610ab357610ab2612999565b5b81526020019081526020015f205490505f8114610b7f575f60025f3373ffffffffffffffffffffffffffffffffffffffff1673ffffffffffffffffffffffffffffffffffffffff1681526020019081526020015f20600183610b15919061358f565b81548110610b2657610b256135c2565b5b905f5260205f2090600402019050428160010181905550610e1083610b4b91906135ef565b42610b569190613630565b81600201819055505f816003015f6101000a81548160ff02191690831515021790555050610de9565b5f6040518060a001604052808673ffffffffffffffffffffffffffffffffffffffff168152602001856006811115610bba57610bb9612999565b5b8152602001428152602001610e1085610bd391906135ef565b42610bde9190613630565b81526020015f1515815250905060025f3373ffffffffffffffffffffffffffffffffffffffff1673ffffffffffffffffffffffffffffffffffffffff1681526020019081526020015f2081908060018154018082558091505060019003905f5260205f2090600402015f909190919091505f820151815f015f6101000a81548173ffffffffffffffffffffffffffffffffffffffff021916908373ffffffffffffffffffffffffffffffffffffffff1602179055506020820151815f0160146101000a81548160ff02191690836006811115610cbd57610cbc612999565b5b021790555060408201518160010155606082015181600201556080820151816003015f6101000a81548160ff021916908315150217905550505060025f3373ffffffffffffffffffffffffffffffffffffffff1673ffffffffffffffffffffffffffffffffffffffff1681526020019081526020015f208054905060035f3373ffffffffffffffffffffffffffffffffffffffff1673ffffffffffffffffffffffffffffffffffffffff1681526020019081526020015f205f8773ffffffffffffffffffffffffffffffffffffffff1673ffffffffffffffffffffffffffffffffffffffff1681526020019081526020015f205f866006811115610dc457610dc3612999565b5b6006811115610dd657610dd5612999565b5b81526020019081526020015f2081905550505b60045f3373ffffffffffffffffffffffffffffffffffffffff1673ffffffffffffffffffffffffffffffffffffffff1681526020019081526020015f2060405180608001604052808673ffffffffffffffffffffffffffffffffffffffff168152602001856006811115610e6057610e5f612999565b5b81526020014281526020016040518060400160405280600e81526020017f4143434553535f4752414e544544000000000000000000000000000000000000815250815250908060018154018082558091505060019003905f5260205f2090600302015f909190919091505f820151815f015f6101000a81548173ffffffffffffffffffffffffffffffffffffffff021916908373ffffffffffffffffffffffffffffffffffffffff1602179055506020820151815f0160146101000a81548160ff02191690836006811115610f3857610f37612999565b5b0217905550604082015181600101556060820151816002019081610f5c919061382d565b5050508373ffffffffffffffffffffffffffffffffffffffff163373ffffffffffffffffffffffffffffffffffffffff167fff5895089d83a4d7e3281d19c29f77676846b906243ac76f1fd731a91ae40a6f85610e1086610fbd91906135ef565b42610fc89190613630565b42604051610fd89392919061390b565b60405180910390a350505050565b5f803373ffffffffffffffffffffffffffffffffffffffff1673ffffffffffffffffffffffffffffffffffffffff1681526020019081526020015f206002015f9054906101000a900460ff16611071576040517f08c379a0000000000000000000000000000000000000000000000000000000008152600401611068906132df565b60405180910390fd5b5f60035f3373ffffffffffffffffffffffffffffffffffffffff1673ffffffffffffffffffffffffffffffffffffffff1681526020019081526020015f205f8473ffffffffffffffffffffffffffffffffffffffff1673ffffffffffffffffffffffffffffffffffffffff1681526020019081526020015f205f8360068111156110fe576110fd612999565b5b60068111156111105761110f612999565b5b81526020019081526020015f205490505f8103611162576040517f08c379a0000000000000000000000000000000000000000000000000000000008152600401611159906139b0565b60405180910390fd5b5f60025f3373ffffffffffffffffffffffffffffffffffffffff1673ffffffffffffffffffffffffffffffffffffffff1681526020019081526020015f206001836111ad919061358f565b815481106111be576111bd6135c2565b5b905f5260205f2090600402019050806003015f9054906101000a900460ff161561121d576040517f08c379a000000000000000000000000000000000000000000000000000000000815260040161121490613a18565b60405180910390fd5b80600201544210611263576040517f08c379a000000000000000000000000000000000000000000000000000000000815260040161125a90613a80565b60405180910390fd5b6001816003015f6101000a81548160ff02191690831515021790555060045f3373ffffffffffffffffffffffffffffffffffffffff1673ffffffffffffffffffffffffffffffffffffffff1681526020019081526020015f2060405180608001604052808673ffffffffffffffffffffffffffffffffffffffff1681526020018560068111156112f6576112f5612999565b5b81526020014281526020016040518060400160405280600e81526020017f4143434553535f5245564f4b4544000000000000000000000000000000000000815250815250908060018154018082558091505060019003905f5260205f2090600302015f909190919091505f820151815f015f6101000a81548173ffffffffffffffffffffffffffffffffffffffff021916908373ffffffffffffffffffffffffffffffffffffffff1602179055506020820151815f0160146101000a81548160ff021916908360068111156113ce576113cd612999565b5b02179055506040820151816001015560608201518160020190816113f2919061382d565b5050508373ffffffffffffffffffffffffffffffffffffffff163373ffffffffffffffffffffffffffffffffffffffff167fc862359f65a943d425c455805a7679353ef1391fb7395bdaabab71bc6cbd0ce08542604051611454929190613a9e565b60405180910390a350505050565b855f808273ffffffffffffffffffffffffffffffffffffffff1673ffffffffffffffffffffffffffffffffffffffff1681526020019081526020015f206002015f9054906101000a900460ff166114ee576040517f08c379a00000000000000000000000000000000000000000000000000000000081526004016114e5906133a4565b60405180910390fd5b5f8686905011611533576040517f08c379a000000000000000000000000000000000000000000000000000000000815260040161152a90613b0f565b60405180910390fd5b5f8383905011611578576040517f08c379a000000000000000000000000000000000000000000000000000000000815260040161156f90613b77565b60405180910390fd5b5f6040518060a0016040528088888080601f0160208091040260200160405190810160405280939291908181526020018383808284375f81840152601f19601f8201169050808301925050505050505081526020018660068111156115e0576115df612999565b5b815260200185858080601f0160208091040260200160405190810160405280939291908181526020018383808284375f81840152601f19601f8201169050808301925050505050505081526020013373ffffffffffffffffffffffffffffffffffffffff16815260200142815250905060015f8973ffffffffffffffffffffffffffffffffffffffff1673ffffffffffffffffffffffffffffffffffffffff1681526020019081526020015f2081908060018154018082558091505060019003905f5260205f2090600502015f909190919091505f820151815f0190816116c7919061382d565b506020820151816001015f6101000a81548160ff021916908360068111156116f2576116f1612999565b5b0217905550604082015181600201908161170c919061382d565b506060820151816003015f6101000a81548173ffffffffffffffffffffffffffffffffffffffff021916908373ffffffffffffffffffffffffffffffffffffffff1602179055506080820151816004015550505f6001805f8b73ffffffffffffffffffffffffffffffffffffffff1673ffffffffffffffffffffffffffffffffffffffff1681526020019081526020015f20805490506117ac919061358f565b905060045f8a73ffffffffffffffffffffffffffffffffffffffff1673ffffffffffffffffffffffffffffffffffffffff1681526020019081526020015f2060405180608001604052803373ffffffffffffffffffffffffffffffffffffffff16815260200188600681111561182557611824612999565b5b81526020014281526020016040518060400160405280600c81526020017f5245434f52445f41444445440000000000000000000000000000000000000000815250815250908060018154018082558091505060019003905f5260205f2090600302015f909190919091505f820151815f015f6101000a81548173ffffffffffffffffffffffffffffffffffffffff021916908373ffffffffffffffffffffffffffffffffffffffff1602179055506020820151815f0160146101000a81548160ff021916908360068111156118fd576118fc612999565b5b0217905550604082015181600101556060820151816002019081611921919061382d565b5050503373ffffffffffffffffffffffffffffffffffffffff168973ffffffffffffffffffffffffffffffffffffffff167fdcac37114f4c0dc51c4b07556e42768769d68530202cab945f406fe4b3a9edc08888888642604051611989959493929190613bcf565b60405180910390a3505050505050505050565b5f803373ffffffffffffffffffffffffffffffffffffffff1673ffffffffffffffffffffffffffffffffffffffff1681526020019081526020015f206002015f9054906101000a900460ff1615611a28576040517f08c379a0000000000000000000000000000000000000000000000000000000008152600401611a1f90613c65565b60405180910390fd5b5f8282905011611a6d576040517f08c379a0000000000000000000000000000000000000000000000000000000008152600401611a6490613ccd565b60405180910390fd5b604051806060016040528083838080601f0160208091040260200160405190810160405280939291908181526020018383808284375f81840152601f19601f820116905080830192505050505050508152602001428152602001600115158152505f803373ffffffffffffffffffffffffffffffffffffffff1673ffffffffffffffffffffffffffffffffffffffff1681526020019081526020015f205f820151815f019081611b1d919061382d565b50602082015181600101556040820151816002015f6101000a81548160ff0219169083151502179055509050503373ffffffffffffffffffffffffffffffffffffffff167f096f893428730b9f440cde9930f6fbd450ce2d7ac1f2895f0d869da7376a36d1838342604051611b9493929190613ceb565b60405180910390a25050565b5f8060035f8673ffffffffffffffffffffffffffffffffffffffff1673ffffffffffffffffffffffffffffffffffffffff1681526020019081526020015f205f8573ffffffffffffffffffffffffffffffffffffffff1673ffffffffffffffffffffffffffffffffffffffff1681526020019081526020015f205f846006811115611c2e57611c2d612999565b5b6006811115611c4057611c3f612999565b5b81526020019081526020015f205490505f8103611c60575f915050611cf0565b5f60025f8773ffffffffffffffffffffffffffffffffffffffff1673ffffffffffffffffffffffffffffffffffffffff1681526020019081526020015f20600183611cab919061358f565b81548110611cbc57611cbb6135c2565b5b905f5260205f2090600402019050806003015f9054906101000a900460ff16158015611ceb5750806002015442105b925050505b9392505050565b611cff612889565b5f8060035f8773ffffffffffffffffffffffffffffffffffffffff1673ffffffffffffffffffffffffffffffffffffffff1681526020019081526020015f205f8673ffffffffffffffffffffffffffffffffffffffff1673ffffffffffffffffffffffffffffffffffffffff1681526020019081526020015f205f856006811115611d8d57611d8c612999565b5b6006811115611d9f57611d9e612999565b5b81526020019081526020015f205490505f8103611dc257825f9250925050611efb565b60025f8773ffffffffffffffffffffffffffffffffffffffff1673ffffffffffffffffffffffffffffffffffffffff1681526020019081526020015f20600182611e0c919061358f565b81548110611e1d57611e1c6135c2565b5b905f5260205f2090600402016001816040518060a00160405290815f82015f9054906101000a900473ffffffffffffffffffffffffffffffffffffffff1673ffffffffffffffffffffffffffffffffffffffff1673ffffffffffffffffffffffffffffffffffffffff1681526020015f820160149054906101000a900460ff166006811115611eaf57611eae612999565b5b6006811115611ec157611ec0612999565b5b81526020016001820154815260200160028201548152602001600382015f9054906101000a900460ff161515151581525050915092509250505b935093915050565b60605f803373ffffffffffffffffffffffffffffffffffffffff1673ffffffffffffffffffffffffffffffffffffffff1681526020019081526020015f206002015f9054906101000a900460ff16611f90576040517f08c379a0000000000000000000000000000000000000000000000000000000008152600401611f87906132df565b60405180910390fd5b60015f3373ffffffffffffffffffffffffffffffffffffffff1673ffffffffffffffffffffffffffffffffffffffff1681526020019081526020015f20805480602002602001604051908101604052809291908181526020015f905b828210156121d4578382905f5260205f2090600502016040518060a00160405290815f8201805461201c9061332a565b80601f01602080910402602001604051908101604052809291908181526020018280546120489061332a565b80156120935780601f1061206a57610100808354040283529160200191612093565b820191905f5260205f20905b81548152906001019060200180831161207657829003601f168201915b50505050508152602001600182015f9054906101000a900460ff1660068111156120c0576120bf612999565b5b60068111156120d2576120d1612999565b5b81526020016002820180546120e69061332a565b80601f01602080910402602001604051908101604052809291908181526020018280546121129061332a565b801561215d5780601f106121345761010080835404028352916020019161215d565b820191905f5260205f20905b81548152906001019060200180831161214057829003601f168201915b50505050508152602001600382015f9054906101000a900473ffffffffffffffffffffffffffffffffffffffff1673ffffffffffffffffffffffffffffffffffffffff1673ffffffffffffffffffffffffffffffffffffffff16815260200160048201548152505081526020019060010190611fec565b50505050905090565b6060825f808273ffffffffffffffffffffffffffffffffffffffff1673ffffffffffffffffffffffffffffffffffffffff1681526020019081526020015f206002015f9054906101000a900460ff1661226b576040517f08c379a0000000000000000000000000000000000000000000000000000000008152600401612262906133a4565b60405180910390fd5b5f8473ffffffffffffffffffffffffffffffffffffffff163373ffffffffffffffffffffffffffffffffffffffff16149050806122ed576122ad853386611ba0565b6122ec576040517f08c379a00000000000000000000000000000000000000000000000000000000081526004016122e390613d8b565b60405180910390fd5b5b5f60015f8773ffffffffffffffffffffffffffffffffffffffff1673ffffffffffffffffffffffffffffffffffffffff1681526020019081526020015f2090505f805b82805490508110156123b75786600681111561234f5761234e612999565b5b838281548110612362576123616135c2565b5b905f5260205f2090600502016001015f9054906101000a900460ff1660068111156123905761238f612999565b5b036123a45781806123a090613da9565b9250505b80806123af90613da9565b915050612330565b508067ffffffffffffffff8111156123d2576123d1613663565b5b60405190808252806020026020018201604052801561240b57816020015b6123f86128dd565b8152602001906001900390816123f05790505b5094505f805b8380549050811015612698578760068111156124305761242f612999565b5b848281548110612443576124426135c2565b5b905f5260205f2090600502016001015f9054906101000a900460ff16600681111561247157612470612999565b5b0361268557838181548110612489576124886135c2565b5b905f5260205f2090600502016040518060a00160405290815f820180546124af9061332a565b80601f01602080910402602001604051908101604052809291908181526020018280546124db9061332a565b80156125265780601f106124fd57610100808354040283529160200191612526565b820191905f5260205f20905b81548152906001019060200180831161250957829003601f168201915b50505050508152602001600182015f9054906101000a900460ff16600681111561255357612552612999565b5b600681111561256557612564612999565b5b81526020016002820180546125799061332a565b80601f01602080910402602001604051908101604052809291908181526020018280546125a59061332a565b80156125f05780601f106125c7576101008083540402835291602001916125f0565b820191905f5260205f20905b8154815290600101906020018083116125d357829003601f168201915b50505050508152602001600382015f9054906101000a900473ffffffffffffffffffffffffffffffffffffffff1673ffffffffffffffffffffffffffffffffffffffff1673ffffffffffffffffffffffffffffffffffffffff16815260200160048201548152505087838151811061266b5761266a6135c2565b5b6020026020010181905250818061268190613da9565b9250505b808061269090613da9565b915050612411565b508361287e5760045f8973ffffffffffffffffffffffffffffffffffffffff1673ffffffffffffffffffffffffffffffffffffffff1681526020019081526020015f2060405180608001604052803373ffffffffffffffffffffffffffffffffffffffff16815260200189600681111561271557612714612999565b5b81526020014281526020016040518060400160405280600b81526020017f4143434553535f55534544000000000000000000000000000000000000000000815250815250908060018154018082558091505060019003905f5260205f2090600302015f909190919091505f820151815f015f6101000a81548173ffffffffffffffffffffffffffffffffffffffff021916908373ffffffffffffffffffffffffffffffffffffffff1602179055506020820151815f0160146101000a81548160ff021916908360068111156127ed576127ec612999565b5b0217905550604082015181600101556060820151816002019081612811919061382d565b5050503373ffffffffffffffffffffffffffffffffffffffff168873ffffffffffffffffffffffffffffffffffffffff167f0a2a95e58638fecdaaaf8b3fc97dbe6c9ad6ea0691e858668f805b2311ac0db58985426040516128759392919061390b565b60405180910390a35b505050505092915050565b6040518060a001604052805f73ffffffffffffffffffffffffffffffffffffffff1681526020015f60068111156128c3576128c2612999565b5b81526020015f81526020015f81526020015f151581525090565b6040518060a00160405280606081526020015f600681111561290257612901612999565b5b8152602001606081526020015f73ffffffffffffffffffffffffffffffffffffffff1681526020015f81525090565b5f81519050919050565b5f82825260208201905092915050565b5f819050602082019050919050565b5f73ffffffffffffffffffffffffffffffffffffffff82169050919050565b5f6129838261295a565b9050919050565b61299381612979565b82525050565b7f4e487b71000000000000000000000000000000000000000000000000000000005f52602160045260245ffd5b600781106129d7576129d6612999565b5b50565b5f8190506129e7826129c6565b919050565b5f6129f6826129da565b9050919050565b612a06816129ec565b82525050565b5f819050919050565b612a1e81612a0c565b82525050565b5f8115159050919050565b612a3881612a24565b82525050565b60a082015f820151612a525f85018261298a565b506020820151612a6560208501826129fd565b506040820151612a786040850182612a15565b506060820151612a8b6060850182612a15565b506080820151612a9e6080850182612a2f565b50505050565b5f612aaf8383612a3e565b60a08301905092915050565b5f602082019050919050565b5f612ad182612931565b612adb818561293b565b9350612ae68361294b565b805f5b83811015612b16578151612afd8882612aa4565b9750612b0883612abb565b925050600181019050612ae9565b5085935050505092915050565b5f6020820190508181035f830152612b3b8184612ac7565b905092915050565b5f80fd5b5f80fd5b612b5481612979565b8114612b5e575f80fd5b50565b5f81359050612b6f81612b4b565b92915050565b5f60208284031215612b8a57612b89612b43565b5b5f612b9784828501612b61565b91505092915050565b5f81519050919050565b5f82825260208201905092915050565b5f5b83811015612bd7578082015181840152602081019050612bbc565b5f8484015250505050565b5f601f19601f8301169050919050565b5f612bfc82612ba0565b612c068185612baa565b9350612c16818560208601612bba565b612c1f81612be2565b840191505092915050565b612c3381612a0c565b82525050565b612c4281612a24565b82525050565b5f6060820190508181035f830152612c608186612bf2565b9050612c6f6020830185612c2a565b612c7c6040830184612c39565b949350505050565b5f81519050919050565b5f82825260208201905092915050565b5f819050602082019050919050565b5f82825260208201905092915050565b5f612cc782612ba0565b612cd18185612cad565b9350612ce1818560208601612bba565b612cea81612be2565b840191505092915050565b5f608083015f830151612d0a5f86018261298a565b506020830151612d1d60208601826129fd565b506040830151612d306040860182612a15565b5060608301518482036060860152612d488282612cbd565b9150508091505092915050565b5f612d608383612cf5565b905092915050565b5f602082019050919050565b5f612d7e82612c84565b612d888185612c8e565b935083602082028501612d9a85612c9e565b805f5b85811015612dd55784840389528151612db68582612d55565b9450612dc183612d68565b925060208a01995050600181019050612d9d565b50829750879550505050505092915050565b5f6020820190508181035f830152612dff8184612d74565b905092915050565b5f602082019050612e1a5f830184612c2a565b92915050565b60078110612e2c575f80fd5b50565b5f81359050612e3d81612e20565b92915050565b612e4c81612a0c565b8114612e56575f80fd5b50565b5f81359050612e6781612e43565b92915050565b5f805f60608486031215612e8457612e83612b43565b5b5f612e9186828701612b61565b9350506020612ea286828701612e2f565b9250506040612eb386828701612e59565b9150509250925092565b5f8060408385031215612ed357612ed2612b43565b5b5f612ee085828601612b61565b9250506020612ef185828601612e2f565b9150509250929050565b5f80fd5b5f80fd5b5f80fd5b5f8083601f840112612f1c57612f1b612efb565b5b8235905067ffffffffffffffff811115612f3957612f38612eff565b5b602083019150836001820283011115612f5557612f54612f03565b5b9250929050565b5f805f805f8060808789031215612f7657612f75612b43565b5b5f612f8389828a01612b61565b965050602087013567ffffffffffffffff811115612fa457612fa3612b47565b5b612fb089828a01612f07565b95509550506040612fc389828a01612e2f565b935050606087013567ffffffffffffffff811115612fe457612fe3612b47565b5b612ff089828a01612f07565b92509250509295509295509295565b5f806020838503121561301557613014612b43565b5b5f83013567ffffffffffffffff81111561303257613031612b47565b5b61303e85828601612f07565b92509250509250929050565b5f805f6060848603121561306157613060612b43565b5b5f61306e86828701612b61565b935050602061307f86828701612b61565b925050604061309086828701612e2f565b9150509250925092565b5f6020820190506130ad5f830184612c39565b92915050565b60a082015f8201516130c75f85018261298a565b5060208201516130da60208501826129fd565b5060408201516130ed6040850182612a15565b5060608201516131006060850182612a15565b5060808201516131136080850182612a2f565b50505050565b5f60c08201905061312c5f8301856130b3565b61313960a0830184612c39565b9392505050565b5f81519050919050565b5f82825260208201905092915050565b5f819050602082019050919050565b5f60a083015f8301518482035f8601526131838282612cbd565b915050602083015161319860208601826129fd565b50604083015184820360408601526131b08282612cbd565b91505060608301516131c5606086018261298a565b5060808301516131d86080860182612a15565b508091505092915050565b5f6131ee8383613169565b905092915050565b5f602082019050919050565b5f61320c82613140565b613216818561314a565b9350836020820285016132288561315a565b805f5b85811015613263578484038952815161324485826131e3565b945061324f836131f6565b925060208a0199505060018101905061322b565b50829750879550505050505092915050565b5f6020820190508181035f83015261328d8184613202565b905092915050565b7f4e6f74206120726567697374657265642070617469656e7400000000000000005f82015250565b5f6132c9601883612baa565b91506132d482613295565b602082019050919050565b5f6020820190508181035f8301526132f6816132bd565b9050919050565b7f4e487b71000000000000000000000000000000000000000000000000000000005f52602260045260245ffd5b5f600282049050600182168061334157607f821691505b602082108103613354576133536132fd565b5b50919050565b7f50617469656e7420646f6573206e6f74206578697374000000000000000000005f82015250565b5f61338e601683612baa565b91506133998261335a565b602082019050919050565b5f6020820190508181035f8301526133bb81613382565b9050919050565b7f496e76616c696420646f63746f722061646472657373000000000000000000005f82015250565b5f6133f6601683612baa565b9150613401826133c2565b602082019050919050565b5f6020820190508181035f830152613423816133ea565b9050919050565b7f43616e6e6f74206772616e742061636365737320746f20796f757273656c66005f82015250565b5f61345e601f83612baa565b91506134698261342a565b602082019050919050565b5f6020820190508181035f83015261348b81613452565b9050919050565b7f4475726174696f6e206d757374206265203e20300000000000000000000000005f82015250565b5f6134c6601483612baa565b91506134d182613492565b602082019050919050565b5f6020820190508181035f8301526134f3816134ba565b9050919050565b7f4475726174696f6e2063616e6e6f7420657863656564203720646179730000005f82015250565b5f61352e601d83612baa565b9150613539826134fa565b602082019050919050565b5f6020820190508181035f83015261355b81613522565b9050919050565b7f4e487b71000000000000000000000000000000000000000000000000000000005f52601160045260245ffd5b5f61359982612a0c565b91506135a483612a0c565b92508282039050818111156135bc576135bb613562565b5b92915050565b7f4e487b71000000000000000000000000000000000000000000000000000000005f52603260045260245ffd5b5f6135f982612a0c565b915061360483612a0c565b925082820261361281612a0c565b9150828204841483151761362957613628613562565b5b5092915050565b5f61363a82612a0c565b915061364583612a0c565b925082820190508082111561365d5761365c613562565b5b92915050565b7f4e487b71000000000000000000000000000000000000000000000000000000005f52604160045260245ffd5b5f819050815f5260205f209050919050565b5f6020601f8301049050919050565b5f82821b905092915050565b5f600883026136ec7fffffffffffffffffffffffffffffffffffffffffffffffffffffffffffffffff826136b1565b6136f686836136b1565b95508019841693508086168417925050509392505050565b5f819050919050565b5f61373161372c61372784612a0c565b61370e565b612a0c565b9050919050565b5f819050919050565b61374a83613717565b61375e61375682613738565b8484546136bd565b825550505050565b5f90565b613772613766565b61377d818484613741565b505050565b5b818110156137a0576137955f8261376a565b600181019050613783565b5050565b601f8211156137e5576137b681613690565b6137bf846136a2565b810160208510156137ce578190505b6137e26137da856136a2565b830182613782565b50505b505050565b5f82821c905092915050565b5f6138055f19846008026137ea565b1980831691505092915050565b5f61381d83836137f6565b9150826002028217905092915050565b61383682612ba0565b67ffffffffffffffff81111561384f5761384e613663565b5b613859825461332a565b6138648282856137a4565b5f60209050601f831160018114613895575f8415613883578287015190505b61388d8582613812565b8655506138f4565b601f1984166138a386613690565b5f5b828110156138ca578489015182556001820191506020850194506020810190506138a5565b868310156138e757848901516138e3601f8916826137f6565b8355505b6001600288020188555050505b505050505050565b613905816129ec565b82525050565b5f60608201905061391e5f8301866138fc565b61392b6020830185612c2a565b6139386040830184612c2a565b949350505050565b7f4e6f206772616e742065786973747320666f72207468697320646f63746f722f5f8201527f63617465676f7279000000000000000000000000000000000000000000000000602082015250565b5f61399a602883612baa565b91506139a582613940565b604082019050919050565b5f6020820190508181035f8301526139c78161398e565b9050919050565b7f41636365737320616c7265616479207265766f6b6564000000000000000000005f82015250565b5f613a02601683612baa565b9150613a0d826139ce565b602082019050919050565b5f6020820190508181035f830152613a2f816139f6565b9050919050565b7f41636365737320616c72656164792065787069726564000000000000000000005f82015250565b5f613a6a601683612baa565b9150613a7582613a36565b602082019050919050565b5f6020820190508181035f830152613a9781613a5e565b9050919050565b5f604082019050613ab15f8301856138fc565b613abe6020830184612c2a565b9392505050565b7f49504653204349442063616e6e6f7420626520656d70747900000000000000005f82015250565b5f613af9601883612baa565b9150613b0482613ac5565b602082019050919050565b5f6020820190508181035f830152613b2681613aed565b9050919050565b7f5265636f726420747970652063616e6e6f7420626520656d70747900000000005f82015250565b5f613b61601b83612baa565b9150613b6c82613b2d565b602082019050919050565b5f6020820190508181035f830152613b8e81613b55565b9050919050565b828183375f83830152505050565b5f613bae8385612baa565b9350613bbb838584613b95565b613bc483612be2565b840190509392505050565b5f608082019050613be25f8301886138fc565b8181036020830152613bf5818688613ba3565b9050613c046040830185612c2a565b613c116060830184612c2a565b9695505050505050565b7f50617469656e7420616c726561647920726567697374657265640000000000005f82015250565b5f613c4f601a83612baa565b9150613c5a82613c1b565b602082019050919050565b5f6020820190508181035f830152613c7c81613c43565b9050919050565b7f4e616d652063616e6e6f7420626520656d7074790000000000000000000000005f82015250565b5f613cb7601483612baa565b9150613cc282613c83565b602082019050919050565b5f6020820190508181035f830152613ce481613cab565b9050919050565b5f6040820190508181035f830152613d04818587613ba3565b9050613d136020830184612c2a565b949350505050565b7f4163636573732064656e6965643a206e6f20616374697665206772616e7420665f8201527f6f7220746869732063617465676f727900000000000000000000000000000000602082015250565b5f613d75603083612baa565b9150613d8082613d1b565b604082019050919050565b5f6020820190508181035f830152613da281613d69565b9050919050565b5f613db382612a0c565b91507fffffffffffffffffffffffffffffffffffffffffffffffffffffffffffffffff8203613de557613de4613562565b5b60018201905091905056fea26469706673582212204d954fe33f3f1c192fc9177a612378a9b4bd120b8c0b3bf993fd931235ddc4c864736f6c63430008140033","linkReferences":{}},"methodIdentifiers":{"addRecord(address,string,uint8,string)":"7f81622a","getGrantDetails(address,address,uint8)":"ab62062f","getMyAccessGrants()":"0053262a","getMyAuditLog()":"0c4cfe8a","getMyRecords()":"e76637ce","getRecordCount(address)":"58214308","getRecordsByCategory(address,uint8)":"e9c6db16","grantAccess(address,uint8,uint256)":"6c52df4e","hasActiveAccess(address,address,uint8)":"9b711bef","patients(address)":"0869cfbc","registerPatient(string)":"869c9eaf","revokeAccess(address,uint8)":"6f925535"},"id":19}